:020000040800F2
:1000000058170020B5030008F73D0008613D0008BF
:10001000F53D0008612A00082542000800000000A4
:10002000000000000000000000000000F5020008D1
:10003000ED2A000800000000510300088D3E000872
:10004000CF030008CF030008CF030008CF03000848
:10005000CF030008CF030008CF030008CF03000838
:10006000CF030008CF030008CF030008CF03000828
:10007000CF030008CF030008CF030008CF03000818
:10008000CF030008CF030008CF03000800000000E2
:10009000000000000000000000000000CF03000886
:1000A000CF030008CF030008CF030008CF030008E8
:1000B000493F0008CF030008CF030008CF03000822
:1000C000CF030008CF030008CF030008CF030008C8
:1000D000CF03000819420008CF0300080000000009
:1000E000CF030008CF030008CF0300080000000082
:1000F000000000000000000000000000CF03000826
:1001000000000000CF030008CF030008CF03000861
:1001100000000000000000000000000000000000DF
:10012000CF030008CF030008652A0008CF030008AA
:10013000CF030008000000000000000000000000E5
:10014000000000000000000000000000CF030008D5
:10015000CF030008CF030008CF030008CF03000837
:10016000CF030008CF0300080000000000000000DB
:10017000000000000000000000000000000000007F
:1001800000000000CF030008000000000000000095
:10019000CF030008CF03000800F002F800F09AF83F
:1001A0000AA090E8000C82448344AAF10107DA45D2
:1001B00001D100F08FF8AFF2090EBAE80F0013F08A
:1001C000010F18BFFB1A43F001031847EC4E000063
:1001D0000C4F0000103A24BF78C878C1FAD85207F3
:1001E00024BF30C830C144BF04680C6070470000B1
:1001F0000023002400250026103A28BF78C1FBD830
:10020000520728BF30C148BF0B6070476E2900F00D
:100210009185702900F0A182662904F0CC856529BA
:1002200004F0C985672904F0C685612904F0C585F5
:1002300003681B0A28BF41F08001692900F012827F
:10024000642900F00F82752900F00C826F2900F0FC
:100250009086782900F06D82E92900F02B86E42948
:1002600000F02886F52900F02586EF2900F08D861C
:10027000F82900F06C820368DB0928BF41F0800197
:10028000632900F09A85732900F09F85E32901F026
:10029000B382F32901F0B882002070471FB504F043
:1002A00085FD9DE8030000F07DFC01F0D9FB040012
:1002B0000020002104F064FD401C6060002000214B
:1002C00004F048FDE06001F0A7FA1FBD10B501F091
:1002D0000CFB10BD01F097FB1146FFF7DFFF04F0A8
:1002E000D5FB01F01DFE03B4FFF7F0FF03BC01F0E6
:1002F00055FE00002C4B19680868B0E8F04F80F3F9
:100300000988BFF36F8F4FF0000080F311887047AA
:100310000000000008480068006880F308884FF07B
:10032000000080F3148862B661B6BFF34F8FBFF34D
:100330006F8F00DF00BF00BF08ED00E0DFF80C00AA
:10034000016841F470010160704700BF88ED00E072
:10035000EFF30980BFF36F8F134B1A681EF0100F75
:1003600008BF20ED108A20E9F04F106009B44FF06B
:10037000500080F31188BFF34F8FBFF36F8F04F0ED
:100380002FFC4FF0000080F3118809BC1968086841
:10039000B0E8F04F1EF0100F08BFB0EC108A80F3E9
:1003A0000988BFF36F8F704710000020EFF30580BE
:1003B000704700000948804709480047FEE7FEE70C
:1003C000FEE7FEE7FEE7FEE7FEE7FEE7FEE7FEE705
:1003D00004480549054A064B70470000393F0008AC
:1003E00099010008581100205817002058130020C8
:1003F0005813002070B5064600F0B8FB056806F1FA
:100400000B0020F00704B4429CBF002070BD2B46B7
:100410006A68BAB11068A04210D304F1080188429A
:100420003CBF5068586007D351681019416011688B
:10043000091B016058601460101D70BD134652689E
:10044000002AE7D12146284600F098FB0028DED19B
:1004500070BD53EA020C00F069802DE9F04B4FF0BB
:100460000006002B1FBFB3FA83F503FA05F424FA44
:1004700005F65E4012BF1643B2FA82F502FA05F4A1
:10048000C5F120051EBF22FA05FC44EA0C04203504
:1004900056EA044C4FEA144418BF641C4FF000089D
:1004A0004FF00009904271EB030C39D3002919BFBA
:1004B000B1FA81F701FA07F6B0FA80F700FA07F609
:1004C000C7F120071EBF20FA07FC46EA0C062037BA
:1004D000B6FBF4FCA7EB0507103F07F01F0BCBF1B1
:1004E00020060CFA0BFB2CFA06F644BFB346002696
:1004F000202FA4BF5E464FF0000B5BEA060C08BF3E
:100500004FF0010B19EB0B09ABFB027C48EB060823
:10051000C01B06FB02CC0BFB03CC71EB0C01C1E74B
:100520000B46024641464846BDE8F08B13B54FF0F6
:1005300000004FF00001AFF30080BDE81C407047A1
:100540007CB51D4616460C00009001D02044401E8C
:10055000074B7B442A4669460190304600F003FC75
:1005600005461CB10020694600F010FC28467CBD01
:10057000410800000FB4044910B503AA029800F026
:1005800029FC10BC5DF814FB4C1000200FB47CB5A6
:100590000C0009AA009001D02044401E084B7B4467
:1005A00069460190089800F0DEFB05461CB100206A
:1005B000694600F0EBFB28467CBC5DF814FB0000AC
:1005C000F507000070B5044685690068C10601D5CD
:1005D000302600E02026C00707D070BDD4E90121F5
:1005E00030469047206A401C20626D1EF6D570BDD3
:1005F00070B5044685690078C00707D170BDD4E99D
:10060000012120209047206A401C20626D1EF6D5F3
:1006100070BD70B50C460546012A05D028788006C5
:1006200000D5EA69002302E0012305E05B1C934248
:1006300002D2E05C0028F9D1A869E618C01AA861C6
:10064000286A184428622846FFF7BCFF04E0D5E971
:10065000012114F8010B9047B442F8D32846FFF764
:10066000C7FF70BD2DE9F0410646002410687529CA
:10067000314616A510D000F0F2FA002802DA404206
:1006800013A507E031688A0701D512A502E04907E2
:1006900004D511A5012401E000F0EAFA00210A22A4
:1006A00006F1240709E0B0FBF2FCB0FBF2F302FB19
:1006B0001C00303078541846491C0028F3D12346DA
:1006C0002A463046BDE8F04100F0DBBA00000000E9
:1006D0002D0000002B00000020000000F0B40D46AB
:1006E0000188090502D5214C7C4402E01F4C7C4462
:1006F0000E34002100F1240608E002F00F07120971
:10070000E75D42EA03721B097754491C52EA03076A
:10071000F3D102780023120704D5702D06D009B159
:10072000022311342246F0BC00F0ABBA012310348E
:10073000F8E770B504460D462146106800F098FAB7
:10074000024629462046BDE870400023C6E7D21D78
:1007500022F00703D3E90023C0E70368126843F0DF
:10076000200303600823C3610023B7E77A48000031
:100770002DE9F05F894604464FF0000ADFF874B1B6
:10078000FB44C0F820A02046E1688847002874D0C8
:10079000252806D0D4E901219047206A401C206218
:1007A000F1E700265F462046E16888472028054695
:1007B00007DB312D05D2781910F8200C08B106435B
:1007C000F1E7B00701D526F00406C4F81CA0002705
:1007D000C4F818A02A2D09D0284603F0DCFD38B350
:1007E00004EB8708303DC8F8185019E059F8041B8D
:1007F000204604EB87029161E1688847012F054696
:1008000018D1E069002820DA26F020061DE0D8F88B
:10081000180000EB800005EB40003038C8F81800E5
:100820002046E1688847054603F0B5FD0028EED173
:10083000012F0AD02E2D08D12046E16888477F1C61
:100840000546022F46F02006C4DBA069002803DA23
:10085000404246F00106A061F00701D026F01006E4
:100860006C2D0BD0682D09D04C2D39D06A2D35D088
:10087000742D35D07A2D33D016E038E0E1682F465C
:1008800020468847B842054609D16C2F26D04FF440
:100890008060E168064320468847054604E06C2FE7
:1008A0001AD04FF4807006430DB3A5F1410019280A
:1008B00002D8203546F400664A462946204626607E
:1008C0004E46FFF7A3FC80B101280BD0F61D26F0A1
:1008D000070000F1080956E74020E4E78020D8E748
:1008E0000020D6E706F104094DE7284652E7206AC2
:1008F000BDE8F09F0A48000030B505460B462A4681
:1009000013F8014B12F8010B08B1A042F8D01CB14A
:10091000002802D06D1CF1E7284630BD40EA0103F3
:10092000024630B59B0710D14FF0013400E008C2F9
:1009300008C91D1B9D4315EAC41FF8D013F0FF0121
:1009400002F8011B0DD01B0AF8E711F8013B002B40
:1009500002F8013B05D011F8013B002B02F8013BE6
:10096000F3D130BD10B5431C02E010F8011B71B18A
:100970008107FAD14FF0013202C88C1A8C4314EA75
:10098000C211F9D0C01A0A0603D0C01E10BDC01A89
:1009900010BD0A0401D0801E10BD0902FCD0401E0B
:1009A00010BD40EA010370B59B072ED14FF0013610
:1009B000042A2AD308C810C99D1B9D43121F15EA9B
:1009C000C61517D0D8B2E1B2401A50EA056110D16D
:1009D00098B2A1B2401A50EA05410AD123F07F40F3
:1009E00024F07F41401A50EA052102D1180EA0EBF5
:1009F000146070BDA342DBD018BA21BA884201D975
:100A0000012070BD4FF0FF3070BD0AB9002070BDED
:100A100010F8013B11F8014B63B1A3420AD1521EF9
:100A200008D010F8013B11F8014B1BB1A34201D1D2
:100A3000521EEDD1181B70BD032A40F2308010F019
:100A4000030C00F0158011F8013BBCF1020F624469
:100A500098BF11F801CB00F8013B38BF11F8013BFA
:100A6000A2F1040298BF00F801CB38BF00F8013BA7
:100A700011F0030300F09482083AC0F0088051F8A6
:100A8000043B083A51F804CBA0E80810F5E7121D22
:100A90005CBF51F8043B40F8043BAFF30080D20741
:100AA00024BF11F8013B11F801CB48BF11F8012B0D
:100AB00024BF00F8013B00F801CB48BF00F8012B30
:100AC000704702F0FF0343EA032242EA024200F0C9
:100AD00002B84FF000020429C0F0128010F0030C9D
:100AE00000F01B80CCF1040CBCF1020F18BF00F821
:100AF000012BA8BF20F8022BA1EB0C0100F00DB8D0
:100B00005FEAC17C24BF00F8012B00F8012B48BF2D
:100B100000F8012B70474FF0000200B513469446D1
:100B20009646203922BFA0E80C50A0E80C50B1F145
:100B30002001BFF4F7AF090728BFA0E80C5048BF59
:100B40000CC05DF804EB890028BF40F8042B08BFF7
:100B5000704748BF20F8022B11F0804F18BF00F8F3
:100B6000012B70477047704770470000004870477E
:100B7000FC100020704770477047704738B5044636
:100B80000A4600206946AFF30080002808BF38BD40
:100B900002460099204600F039FA012038BD0120B4
:100BA00000F0F6BEF8B5AFF30080054600200C4615
:100BB000102000BF0646A819A0420DD9324669464A
:100BC0000020AFF30080070008BF00F0E1FE0098AE
:100BD000A04218BF0546C419FFF7C8FF05600746C5
:100BE000F01D20F007004619284600F00AF8B4422C
:100BF00008BFF8BDA21B31463868BDE8F84000F0D8
:100C000005BA00210160C0E901107047102070474B
:100C100070B50446051FFFF7A9FF0068002C14BF3C
:100C2000446870BD002C18BFAC423CBF20466468CD
:100C3000F8D301680A18AA4218BF456003D12A6890
:100C400005461144016028684119A1421CBF6C602F
:100C500070BD6168696021680844286070BD0968DA
:100C60004A0501D540B27047C905FCD500B27047AE
:100C700009684A0501D5C0B27047C905FCD580B2E4
:100C800070472DE9F0470D4699469246044600F11B
:100C900024080168880604D5E06921F0100121606C
:100CA00000E00120A84201DD471B00E00027A16908
:100CB0007A1902EB0900081AA0612078C00602D454
:100CC0002046FFF77FFC002608E0D4E901211AF84E
:100CD00006009047206A401C761C20624E45F4DBDB
:100CE0002078C0060AD52046FFF76CFC06E0D4E960
:100CF000012130209047206A401C2062381EA7F155
:100D00000107F4DC07E0D4E9012118F80500904759
:100D1000206A401C2062281EA5F10105F3DC204654
:100D2000FFF766FC2078000602D50220BDE8F087B8
:100D30000120FBE711680268006A530501D50870BD
:100D40000AE0D30501D5088006E0130603D5C217D3
:100D5000C1E9000200E008600120704701694A1CF7
:100D600002610878704700B58FB0CDE901310021EC
:100D7000059105497944CDE9031011466846FFF70E
:100D8000F7FC0FB000BD0000E5FFFFFF0A6802F8A6
:100D9000010B0A607047D1E900239A4202D2531C2A
:100DA0000B601070704710B5436913B1AFF300804A
:100DB00001E0FFF72EFC012010BD127800F12401A4
:100DC0000A7000224A700122EDE711684FF0FF32ED
:100DD000E9E70000074B70B50D467B44FFF7C3FF02
:100DE0000446284600F014FD10B14FF0FF3070BDEE
:100DF000204670BD8F3B00002DE9FF5F15468A46F7
:100E00000446DFF8AC80F8440027D8E900103E46DD
:100E1000CDE9001010E03AF816106A4602A800F07A
:100E200097FD411C07D02178890603D5E26939185E
:100E300091420DD80744761C2078800602D5E069DF
:100E4000B84205DDAE42E6DB3AF816000028E2D1F2
:100E5000A069C01BA0612046FFF7B4FBD8E90010D1
:100E6000CDE90010002017E03AF818106A4602A8F1
:100E700000F06EFDB0F1FF3F81460BD000250DF173
:100E8000080B05E0D4E901211BF8050090476D1C13
:100E90004D45F7D308F10100B0428046E4DB206AFB
:100EA000384420622046FFF7A3FBBDE8FF9F000007
:100EB000964100002DE9F0418046D21D22F0070244
:100EC0000025D2E90002F52915A614D0011E72F101
:100ED000000106DA0023D0EB030063EB020211A647
:100EE00008E0D8F800108B0701D50FA602E04907EB
:100EF00001D50EA601251146002408F1240704E0BF
:100F000000F09EF830323A55641C50EA0102F7D1E5
:100F10002B46324621464046BDE8F041FFF7B1BEC0
:100F2000000000002D0000002B0000002000000049
:100F300030B4002100F1240408E002F00705D208D3
:100F4000303542EA4372DB086554491C52EA030516
:100F5000F3D10468002310A2250707D5A40600D406
:100F600021B1C46901230DA2641EC46130BCFFF726
:100F700088BE10B5044621461068FFF779FE024688
:100F80002046BDE810400023D2E7D21D22F0070121
:100F9000D1E90023CCE70000000000003000000091
:100FA00010B5203AC0F00B80B1E81850203AA0E804
:100FB0001850B1E81850A0E81850BFF4F5AF5FEA38
:100FC000027C24BFB1E81850A0E8185044BF18C9EB
:100FD00018C0BDE810405FEA827C24BF51F8043B92
:100FE00040F8043B08BF7047D20728BF31F8023BE6
:100FF00048BF11F8012B28BF20F8023B48BF00F87A
:10100000012B704700487047F410002003464068E9
:101010008C46002818BF88423CBF03464068F8D37E
:1010200018681844884207D00CF1030020F007002C
:10103000001D411A521A0146081D0A60FFF7E8BD5B
:1010400030B5B0F10A024FEA900E71F100034EEA9A
:10105000817EB0EB0E0061EB91014FEA101E4EEA6B
:10106000017E10EB0E0041EB11114FEA102E4EEAFB
:10107000016E10EB0E0041EB11214FEA104E4EEACB
:10108000014E10EB0E0041EB1141401841F10001FF
:101090004FEAD00040EA41704FEAD10110EB8005E1
:1010A0004FEA810444EA907444EB01046D1944EB67
:1010B0000404521BA3414FF0000348BF0A3200D57D
:1010C00030BD401C41F1000130BD70472DE9FF4F9C
:1010D0000C461E464FF0FF378BB0D2E90001DDF819
:1010E00060800A908A46C1F30A5505B93D46002141
:1010F00008464FF00000BAF1000F00F4400005DA96
:1011000000EB80004FF4400101EA50004FEA905993
:10111000B9F1010F00DDB9460A9850EA4A000ED035
:1011200044F61050A5F2FF3545432F14B8F1000FD7
:101130001ED07542291E1EDDC9F100021CE0B8F167
:10114000010F4FF0000001D0302103E0F24305E031
:101150002154401CB042FBDB3046002200212154C8
:101160000B99C1F80880C1E900200FB0BDE8F08FED
:10117000BD1B6D1CDEE74A4600DA694206A800F096
:10118000B3FC06AB93E8070003AB83E807005046C7
:101190000A9901F09DF88DE80700A0F500501F386E
:1011A00000900398002D0ADD42F21F014A460844D0
:1011B000002303A90390684601F006FB09E0A0F5AF
:1011C00000504A461F38002303A90390684601F0E7
:1011D00010FB8DE807000004000C03D04FF0FF3037
:1011E000410800E01046B8F1000F03D00022009241
:1011F00015461EE0751E05D4FFF722FF30326255FA
:101200006D1EF9D5B3460122084302D000227F1C8F
:1012100004E02078302801D100227F1E002A09979F
:1012200084D01DE0112D07DAFFF70AFF3032625536
:101230006D1C50EA0102F5D1084302D00098C8B1F4
:101240000EE00021681E05E0235C625C63542254BA
:10125000401E491C8142F7DBAB46A81B401E09908B
:10126000002004F80B000B98099AC0F80880C0E928
:10127000002B7AE711264FF0000857E72DE9F04FD1
:1012800088460446D21D22F0070191B0D1E9000141
:10129000CDE90A0103F057F802460B98C00F01D0C0
:1012A0002D2007E02068810701D52B2002E02021B6
:1012B00001EAC000032A099001D0072A05DB034692
:1012C0004146204600F0D0FB0BE12078800601D596
:1012D000E06900E00620B8F1650F814606D0B8F15C
:1012E000660F18D0B8F1670F70D131E00020B9F166
:1012F000110F009001DB112301E009F101030AAA9B
:1013000001A90CA8FFF7E2FEDDE90C70002609F147
:101310000105834647E001204B4600904FF000470F
:101320000AAA01A90CA8FFF7D1FEDDE90DB00C99BE
:101330005D46002610B909F101000D18B9EB050052
:1013400003D4C0F1FF3609F10105A5EB09002BE03C
:10135000B9F1010F01DA4FF001090020B9F1110FC5
:101360000090484601DD112300E003460AAA01A9C6
:101370000CA8FFF7ABFEDDE90C704D460026834656
:10138000207800070AD4AB4500DA5D4601A8012D9C
:1013900004DD411911F8011C302907D04F4502DA4C
:1013A00017F1040F04DA012082460FE06D1EEEE70C
:1013B000002F02DCED1B3E4403E0781CA84200DD58
:1013C0007D1CB81B00F1010A4FF000472078000790
:1013D00003D4AA4501DB4FF0FF3A0021B7F1004FDB
:1013E0000DF143088DF8431024D002202B23002F49
:1013F00001DA7F422D230A21021EA0F1010000DC48
:101400005FB197FBF1FC97FBF1F201FB1C7C1746E7
:101410000CF1300C08F801CDEEE7A8F101000370E3
:101420002188090501D5452100E06521A0F10108C9
:1014300000F8011C09980FA9A1EB0807FF1D00B1D6
:101440000120411901EBEA70A1693844081A401ED5
:10145000A0612078C00602D42046FFF7B3F80998AF
:1014600028B1D4E901219047206A401C20622078ED
:10147000C00622D52046FFF7A5F81EE0002E04DBAB
:10148000B34502DD01A8805D00E03020D4E90121F0
:101490009047206A401C2062761CAAF101005FEA96
:1014A000000A0AD100F0DCFAC0680168405CD4E9A7
:1014B00001219047206A401C2062281EA5F10105E9
:1014C000DCDC07E0D4E9012118F8010B9047206A21
:1014D000401C2062381EA7F10107F3DC2046FFF70D
:1014E00087F8032011B041E62DE9F04F04460D4680
:1014F000D21D22F0070089B0D0E90097484639464E
:1015000002F021FF0246F80F01D02D2307E02068EA
:10151000810701D52B2302E0202101EAC0038DF8C9
:1015200020300BB1012000E00020032A824601D0C8
:10153000072A04DB2946204600F096FA3FE120788E
:10154000800601D40D2500E0E569C7F30A560D2D8C
:1015500049DA00214FEA175B08464FF00000002FE0
:1015600000F4400007DA00EB80004FF4400100EB8C
:10157000D07001EA60008115012901DD4FF0FF31D3
:1015800000224FEA850CBCF1180F06D31346ACF1CC
:1015900018004FF08052C24003E04FF4801323FA4A
:1015A0000CF30CF10C0CBCF1200F04D3ACF1200CAB
:1015B00009FA0CF001E007FA0CF000294FF000489E
:1015C00001DD18B90FE00ED140450CD319EB02092B
:1015D0005F4121B9404502D19F4329EA0209BBEB93
:1015E000175F00D0761C2088000502D57B48784420
:1015F00002E07A487844193808AA302302F80A3001
:10160000037C0AF10101002E0AF1020A53546A46D2
:1016100002DC4FF0300101E04FF031014FF00108E2
:101620008DF8001002D0A6F2FF3603E059EA470118
:1016300000D06B4E002D02DC2178090704D54FF055
:1016400002082E218DF80110C44600210BE0C7F3DB
:1016500003433F01C35C491C6D1E02F80830052995
:1016600008F1010801DA002DF1DC00210CE000EBAB
:101670001973491C1B786D1E082902F808304FEABF
:10168000091908F1010801DA002DF0DC21688B0648
:1016900002D516E0A8F10108E04505DD02EB0803DC
:1016A00013F8013C302BF5D0B8F1000F09DD02EB47
:1016B000080313F8013C2E2B03D1090701D4A8F12C
:1016C0000108002D05DD3E2102F808106D1E08F10D
:1016D0000108407C002E02F8080008F1010804DA35
:1016E0002D20764202F8080002E02B2002F80800C4
:1016F0000A214FF47A70864208F101080BDB96FB51
:10170000F0F3303302F8083096FBF0F308F10108EB
:1017100000FB136601E0642E0CDB642096FBF0F303
:10172000303302F8083096FBF0F308F1010800FBB3
:10173000136601E00A2E06DB96FBF1F0303002F86A
:10174000080008F1010896FBF1F001FB1060303051
:1017500002F80800A16908F1010808EB050202EB94
:101760000A00081AA0612078C00602D42046FEF7BD
:1017700029FF216A08AE01EB0A00206204E0D4E9E7
:10178000012116F8010B9047BAF1010AF7D220782F
:10179000C00602D52046FEF715FF6E4609E016F892
:1017A000010B3E280FD0D4E901219047206A401C4C
:1017B0002062B8F10108F2D22046FEF719FF09B005
:1017C0000320BDE8F08F206A2844206203E0D4E9BA
:1017D0000121302090476D1EEBD3F8E7C939000096
:1017E00002FCFFFF10B5436913B1AFF3008001E0C5
:1017F000FFF702FB012010BD128800F12401828452
:101800000022C2840122EDE711684FF0FF32E9E7C0
:10181000007B00F08000704710B542485421FFF76C
:101820007AF941485421FFF776F940485421FFF7EF
:1018300072F93F493B483C4A3F4B08603D490A60CA
:101840003A491960531C0365481C1065012008655E
:101850003B48344A39A1784400F0C6FA20B93848E8
:1018600078440A3800F06AFB37482F4A35A178449B
:1018700000F0BAFA20B9344878440A3800F05EFB28
:1018800032482A4A2FA1784400F0AEFA20B92F48F6
:1018900078440A3800F052FB40232248DC00002143
:1018A000224600F07EFA20B125487844543800F0F2
:1018B00045FB1D4822464023002100F072FA20B16A
:1018C00021487844543800F039FB18482246102348
:1018D000002100F066FA002806D01C487844BDE8D4
:1018E0001040563800F02ABB10BD104870B5006D8E
:1018F00020F001040B4800F0EDFA0B4800F0EAFA82
:101900000A4800F0E7FA09E0206D20F001052046C2
:1019100000F0E0FA2046FFF77BF92C46002CF3D1CB
:1019200070BD0000F80F00204C100020A010002017
:101930008C00002090000020940000207200000025
:101940007437000077000000603700004C3700005B
:1019500070B516460C46054600F07AF8036893F811
:101960000101012806D0FF2C0FD8185D68B10120B5
:101970002C7070BDD3F807013246214603F20713DD
:1019800003442846BDE8704018474FF0FF3070BD53
:1019900010B500F0DBFABDE8104000F0CABA0EB591
:1019A000CDE90001FEF7DEFF029069460120ABBEE3
:1019B0000EBD08B5694600900220ABBE08BD1FB53C
:1019C0008DE8070069460520ABBE04B010BD1FB509
:1019D0008DE80F0069460620ABBEF6E708B56946FC
:1019E00000900920ABBE08BD1CB5CDE900016946D9
:1019F0000A20ABBE1CBD704708B5694600900C209C
:101A0000ABBE08BD70477546FFF7FCFAAE46050051
:101A10006946534620F00700854618B020B5FEF70A
:101A2000D7FCBDE820404FF000064FF000074FF014
:101A300000084FF0000B21F00701AC46ACE8C009EC
:101A4000ACE8C009ACE8C009ACE8C0098D467047F5
:101A500010B500F005F8001D10BD00BF25330000D3
:101A600000487047141100202DE9F0411F4604463C
:101A700003260168072A01F4006004DB08B116A5FB
:101A800005E016A503E008B115A500E015A521F0B5
:101A900010002060A069C01EA0610FB1401EA061AF
:101AA0002046FEF78FFD4FB1D4E90121384690471B
:101AB000206A401C2062C01C206206E0206AFAE70F
:101AC000D4E9012115F8010B9047761EF8D2204683
:101AD000FEF78EFDBDE8F0814E414E006E616E0056
:101AE000494E4600696E66002DE9F047814616466C
:101AF0008AB0354878440DC88DE80D0032487844E6
:101B0000801C03AC0DC884E80D0041F69B300844EE
:101B1000372190FBF1F290FBF1F5A5F1800501FB77
:101B200012041B3C02D56442012000E00020DFF8D3
:101B300098A080460027FA44AAF1BE0A0EE0E0070A
:101B40000AD03246684607EB470101230AEB8101C0
:101B500000F04FFE8DE8070064107F1C002CEED1D2
:101B6000194F7F44AE3F19E0E80715D007EB04108A
:101B70000DF1180A90E80E008AE80E00C068F042E5
:101B800001D1981908903246012306A903A800F054
:101B900030FE03AB83E807006D10641C002DE3D119
:101BA0004FF0010332466946B8F1000F03A802D096
:101BB00000F00AFE01E000F01CFEC9E90001C9F8CE
:101BC00008200AB0BDE8F087603500002DE9F04735
:101BD00005460C46C86820F4201040F48000C86018
:101BE000800602D5084600F0B2FAE06841F28201B0
:101BF0004FF0FF390140022903D0204600F050FA8F
:101C0000B5E000F42041B1F5004F0FD1C00306D577
:101C10006168E06A884200D80846606006E0206992
:101C2000E06260606069FFF7E7FEA061A0680022E3
:101C3000EEB200280DDAE1688B050AD4C043A0603B
:101C400041F490302260E0606068411C6160067081
:101C5000A5E0E0689046226040F40050E060206912
:101C600068BB6069FFF7BAFE012704F12405A0B143
:101C7000A08910F4407F08D0E069FEF7BBFB20612B
:101C800018B1E06840F4006016E0E7612561E068A3
:101C900020F4407040F480600EE0E069FEF7AAFB9B
:101CA00000282061F1D0E06840F4006010F4407F2B
:101CB000E06002D140F48070E06020696060E0681C
:101CC00025696FF0010AC1051FD56168E06A884285
:101CD00000D80846411B04D02246284600F0EAF905
:101CE000F0BBE068010203D5E562C4E9015854E0A5
:101CF000691CE1626160E16940F48030491EC4E919
:101D0000021030462E70BDE8F087010202D500F4C3
:101D100080320AE06068411C61600670E0680A2E4B
:101D200040F48030E06006D00022E16A60688142C1
:101D300003D90B4602E00122F7E70346A7895B1BA4
:101D40007F0503D4E7699F4200DDE2B1814200D8FC
:101D50000146E5620F1AC4E90158002B09DD00E0D5
:101D600005E022461946284600F0A4F908B1484685
:101D7000C9E747B1A069E5626560C01BA061E06882
:101D800040F01000E060E068000208D56168A069DA
:101D9000E562491B08446560A0615046B3E73046E0
:101DA000B1E770B5C468A50713D0650211D4B2F5C8
:101DB000807F09D0B2F5007F06D0B2F5806F08D1E0
:101DC000012300F1240106E05D1E6FF07F46B5425D
:101DD00001D3012070BD0161C361416024F47061D1
:101DE0001143C160002070BD2DE9F0410C4607464B
:101DF0001646104600F06EF82078611C61280AD063
:101E0000722802D077283CD102E00125002405E0A9
:101E10000225042402E0082448F2020511F8010B0F
:101E20002B2806D0622809D011F8010C74280AD09A
:101E30000BE045F0030544F00204EFE745F004052C
:101E400044F00104EAE744F0100438462146FFF765
:101E5000A6FD411C15D00021316171604FF4007165
:101E6000F560F1617061200704D53046022200213F
:101E700000F09AF8306D40F0010030653046BDE862
:101E8000F0810020FBE72DE9F0410D460646104C9D
:101E9000206DC10704D0410804D020F00104F7E709
:101EA00022460EE05420FEF7A5FA07000ED0206D62
:101EB00047F001010843542120653846FEF72BFE08
:101EC0003A4629463046BDE8F0418DE70020D6E786
:101ED000F80F00202DE9F04704464FF000094FF0BD
:101EE000FF37C568D4E90486A80707D0204600F06C
:101EF0000BF93046FFF75DFD002802DA3846BDE8F1
:101F0000F087280502D54046FEF782FE4C21204688
:101F1000FEF701FE206D20F0010020654846EEE747
:101F200010B50446AFF300802046BDE81040FEF730
:101F3000DAB9002801D000F031B8704710B500F0D0
:101F400041F9BDE81040FFF7F4BF000010B50128CB
:101F500005D0002103A000F01BF9012010BD09A14C
:101F6000F8E7000053494752544D454D3A204F750C
:101F700074206F662068656170206D656D6F727981
:101F8000000000003A2048656170206D656D6F7239
:101F90007920636F7272757074656400014918204E
:101FA000ABBEFEE7260002002DE9F04104461646CE
:101FB0000D464769007B80072ED03846FFF70EFD9F
:101FC00050BB3EB3012E02D0022E25D104E02046A4
:101FD00000F059F905441DE03846FFF70DFDE168B2
:101FE000002841F01001E16005DA204600F058F8C1
:101FF0000120BDE8F081C9030BD56268E16A914216
:1020000000D81146A26911442269891A814200DD73
:1020100008460544002D01DA0220EAE7E16A60681B
:10202000E268814206D29103E06203D522F40031D6
:1020300041F01002A6690027AE4213DCE16A81423A
:1020400001D90B4600E0034603EB060C2369ACEB19
:10205000030CAC4506DD814201D98C4600E0844684
:102060009C4505D1A760276042F02000A5620DE0E5
:10207000AD1BE669AE1B8142A66000D90846C01AB6
:10208000281A20605819606022F020000349084097
:10209000E060002084F84870ABE70000BFCFD7FFB6
:1020A000C16821F4001141F08001C160002181600C
:1020B000016070472DE9F047814614460E464FF007
:1020C000FF383248D5685769054209D03846A169BA
:1020D000FFF78AFC002811DB2C48C0430540E5606F
:1020E0002B46324649463846FFF769FCA16920F085
:1020F0000042B21A11440028A16103D02046FFF724
:10210000CFFF4046BDE8F08770B504460569C06A58
:102110006168884200D80846E16821F42011E16036
:10212000C90312D5A84208D02246411B2846FFF712
:10213000C1FF10B14FF0FF3070BD0020E562C4E96F
:102140000150E06820F48030E060002070BD10B5E0
:102150000446C06820F02000E060A16AA0698842BF
:102160000DD02046FFF7D0FFE06820F4405040F04B
:102170001000E060A06AA0612069E062606044F243
:102180004001E0688843E06010BD000010000200DC
:1021900070B505460C460A2000E06D1C00F06CF896
:1021A00035B128780028F8D102E0641C00F064F80A
:1021B00014B120780028F8D1BDE870400A2000F062
:1021C0005BB8000010B5014602A0FFF7E1FF012057
:1021D00010BD000053494752545245443A205265BD
:1021E0006469726563743A2063616E2774206F704E
:1021F000656E3A20000000004FF0013C50F8042BBF
:1022000051F8043B9A4221D1A2EB0C03934313EA09
:10221000CC1317D150F8042B51F8043B9A4215D136
:10222000A2EB0C03934313EACC130BD150F8042B0D
:1022300051F8043B9A4209D1A2EB0C03934313EAF1
:10224000CC13DBD04FF00000704700BFD01A01BAAA
:10225000B1FA81F101F0180122FA01F0CB40C1F18D
:102260002001DBB2C0B2C01A2CFA01F3D11A91439B
:1022700011EAC311E6D1704708B569468DF8000030
:102280000320ABBE08BD10B50146C268900703D05D
:10229000900607D5886A0AE000F016F8012101606F
:1022A000881E10BD8B69486818440B69C01A91F8E4
:1022B00048301BB191F84910401A10BD1103FCD5EC
:1022C0000028FADD401E10BD00487047F4100020C1
:1022D0005FEA400C08BF91F0000F4FEA8C234FEAF1
:1022E000C12243EA51514FEA1C5018BF00F5F0409B
:1022F0004FEA300018BF41F000415FEA6C5C00F02B
:102300002980BCF1FF3F08BF40F080407047130CAC
:1023100006BF12044FF0100C4FF0000C130E04BF58
:1023200012020CF1080C130F04BF12010CF1040C83
:10233000930F04BF92000CF1020CD30F04BF5200A4
:102340000CF1010C11464FF00002A0F11F00A0EBB0
:102350000C00704711F0004F08BF704731F000418A
:102360003FF4D5AF0B0C06BF09044FF0100C4FF033
:10237000000C0B0E04BF09020CF1080C0B0F04BF7C
:1023800009010CF1040C8B0F04BF89000CF1020C45
:10239000CB0F04BF49000CF1010CCCF12003A0EBE2
:1023A0000C0022FA03F302FA0CF241EA030100F1F5
:1023B0000100704720F07F4C80EA030023F07F4744
:1023C000ACEB070303F57C5300F0004003F1FF037F
:1023D0002DE980494FEA154B09B44FEA144325EA29
:1023E0000B4E24EA03480FF2042606EB1327490894
:1023F0003E785FEA320203FB0667C7F5000707FB7A
:1024000006F64FEA54374FEAD64606F1020607FBB6
:10241000066CCCF1005C4FEA1C472CEA074C07FB2A
:1024200006F40CFB06F504EB15464FEA961634BF8E
:1024300000204FF000404FEAD13706FB07FC4FEA7F
:102440001C4C0CFB0BF7D21B03FB0CF761EB0701D9
:102450000CFB0EF7B0EB074072EB17420CFB08F7D2
:1024600034BFA2EB0742B2EB074261EB17414FEAE0
:102470000C444FEA910706FB07FC4FEA1C4C0CFB8F
:102480000BF7B0EBC74072EB573203FB0CF734BFCE
:10249000A2EBC742B2EBC74261EB57310CFB0EF720
:1024A000B0EBC70072EB57720CFB08F734BFA2EB1E
:1024B000C702B2EBC70261EB5771039F4FEA81611C
:1024C00041EA921104EBCC044FEAD1374FEA826221
:1024D00006FB07FC42EA90124FEA80604FEA1C4C70
:1024E0000CFB0BF7D21B03FB0CF761EB07010CFB9A
:1024F0000EF7B0EB074072EB17420CFB08F734BF46
:10250000A2EB0742B2EB074261EB17414FEA8C5551
:102510004FEA910704EB9C2406FB07FC4FEA1C4C96
:102520000CFB0BF7B0EBC74072EB573203FB0CF719
:1025300034BFA2EBC742B2EBC74261EB57310CFB91
:102540000EF7B0EBC70072EB57720CFB08F734BF05
:10255000A2EBC702B2EBC70261EB577115EB4C253A
:102560004FEA816141EA92114FEA82624FEAD13724
:1025700042EA901206FB07FC44F100044FEA806037
:102580004FEA1C4C0CFB0BF7D21B03FB0CF761EB67
:1025900007010CFB0EF7B0EB074072EB17420CFB88
:1025A00008F734BFA2EB0742B2EB074261EB1741D9
:1025B00015EB1C154FEA813141EA92414FEA823214
:1025C00042EA90424FEA80304FEA0C7644F1000430
:1025D00048EA03434EEA0B484FF0000EB2EB080CFA
:1025E00071EB030724BF624639464EEB0E0E4FF0E7
:1025F000000B0018524149414BEB0B0BB2EB080C9E
:1026000071EB03077BF1000B24BF624639464EEBAA
:102610000E0E4FF0000B0018524149414BEB0B0BD3
:10262000B2EB080C71EB03077BF1000B24BF624691
:1026300039464EEB0E0E51EA020718BF46F001066E
:1026400016EB0E7655F1000254F1000103D5BDE8FA
:102650008901BDE80088BDE88901BDE80048B619D8
:10266000524141EB0101A3F10103704780807F7E5D
:102670007D7C7B7A797877767675747372717170F8
:102680006F6E6E6D6C6C6B6A6A69686867666665AA
:102690006464636362616160605F5F5E5E5D5D5C38
:1026A0005C5B5B5A5A5959585857575656555555A9
:1026B0005454535352525251515050504F4F4F4E09
:1026C0004E4D4D4D4C4C4C4B4B4B4A4A4A49494957
:1026D0004848484747474746464645454544444499
:1026E000444343434342424242414141002B9C46C2
:1026F00030D477002BD01CB54FEA370703B44FF026
:1027000010004FF01001BAF1000F06D0BCF1000F1D
:10271000DCBF40F0080040F008014FF000000FBCA3
:10272000BDE810400BF1010BBBF1010F08BF5FEAE0
:10273000170722BF12F1010211F101014FF0004110
:1027400043F1000300F0004043EA00007047F9D372
:102750005708D0E746EA064613F1400F4FEA1646FF
:102760001FDD13F1200FDFBF16430A46002120337F
:102770005B42BED0C3F1200746EA064602FA07F7DD
:102780004FEA164646EA0706C3F1200722FA03F28B
:1027900001FA07F721FA03F14FF0000342EA0702BA
:1027A000A7E746EA020646EA06464FEA164646EA22
:1027B0000106BCBF46EA0646360C4FF000034FF058
:1027C00000024FF0000194E72DE9804C9A469346B1
:1027D00070B491E8380007C831EA400C48BF34EAC9
:1027E000430C03D5FFF7E6FDFFF780FFF0BCBDE823
:1027F000008C2DE9804C9A46934670B491E83800DD
:1028000007C810F0804F08BF13F0804F03D100F0CD
:1028100005F8FFF76BFFF0BCBDE8008C20F07F47A8
:1028200080EA030023F07F4C07EB0C03A3F57C53F5
:1028300000F00040A3F1FE0392F0000F00F0B3801F
:1028400095F0000F00F077802DE901494FEA114023
:102850004FEA144621EA004800FB06FC24EA06473A
:1028600008FB06F607FB08F800FB07F718EB06481D
:102870004CEB164C4FEA124B18EB07484FEA154643
:102880004CEB174022EA0B4E0BFB06FC25EA0647F1
:102890000EFB06F607FB0EFE0BFB07F71EEB064EC4
:1028A0004CEB164C4FF000061EEB074E4CEB174B53
:1028B00018EB0B0840F1000018EB0E0B58EB00086A
:1028C00040F100008F1A4FF000013CBFC943661B66
:1028D00014BFB5EB040C00213CBFC943F61B4FEA03
:1028E00017444EEA8E0E27EA04454FEA1C4704FBC4
:1028F00007622CEA074C05FB07F70CFB05F604FB07
:102900000CFC16EB074642EB174216EB0C4642EB6B
:102910001C421BEB060658EB0202414146EA9E06AA
:1029200001D5BDE80189B619524141EB0101A3F17E
:102930000103BDE801894FEA14454FEA114724EA33
:10294000054621EA074C05FB07F406FB07F70CFBDD
:1029500006F105FB0CFC11EB074144EB17444FEA71
:10296000124711EB0C4144EB1C4422EA074C05FBD7
:1029700007F206FB07F70CFB06F605FB0CFC16EB53
:10298000074642EB174216EB0C4642EB1C456A1811
:1029900054F1000148BF7047B619524141EB0101A3
:1029A000A3F10103704795F0000F37D04FEA1142B1
:1029B0004FEA144721EA024624EA074C02FB07F1DA
:1029C00006FB07F70CFB06F402FB0CFC14EB0744B8
:1029D00041EB17414FEA154714EB0C4441EB1C4106
:1029E00025EA074C02FB07F506FB07F70CFB06F68A
:1029F00002FB0CFC16EB074645EB174516EB0C46A5
:102A000045EB1C42121951F1000148BF7047B6193D
:102A1000524141EB0101A3F1010370474FEA144514
:102A20004FEA114724EA054621EA074C05FB07F166
:102A300006FB07F70CFB06F24FF0000605FB0CFC4B
:102A400012EB074241EB174112EB0C4251EB1C41D8
:102A500048BF7047921841EB0101A3F10103704791
:102A6000FEE70000014800F09FB80000DC000020F5
:102A700001681823CAB2103AB2FBF3F2054B6FF3A8
:102A80000901032A9B5CC36500D9091D81650846BD
:102A900070470000BE4D000810B5014600208B694C
:102AA0008A6A4FF0C07453B1B3F5005F15D072B1AC
:102AB000012A0CD0022A0AD0032A09D104E01AB153
:102AC000012A06D0022A03D1C96AC90100D5012012
:102AD00010BDC96AA142FAD010BD002AF7D0012A60
:102AE000F2D0022AF3D0032AF3D010BD704772B699
:102AF000FEE72DE9F0410446876D00F07FFA0646B7
:102B000094F835000025022806D08020606584F8FE
:102B100034500120BDE8F0812068016821F01601E1
:102B200001602068416921F080014161206C08B991
:102B3000A06C20B12068016821F0080101602068C4
:102B4000016821F0010101600CE000F057FA801BE0
:102B5000052807D920206065032084F8350084F813
:102B60003450D7E720680068C007EED194F85C10B5
:102B70003F208840B860012084F8350084F8345044
:102B80000020C7E790F83510022903D08021416565
:102B900001207047052180F835100068016821F098
:102BA00001010160002070472DE9F84304464FF011
:102BB0000009CDF8009063484FF41651A56D0068E8
:102BC000B0FBF1F72E6894F85C10082000FA01F1D0
:102BD00031420FD021680A6852070BD50A6822F0EB
:102BE00004020A6094F85C108840A860606D40F0B0
:102BF0000100606594F85C104FF0010808FA01F0DC
:102C0000304208D021684969090604D5A860606D82
:102C100040F00200606594F85C1004208840304267
:102C200008D021680968890704D5A860606D40F064
:102C30000400606594F85C1010208840304218D081
:102C400021680968090714D5A8602068016849034C
:102C500004D50068000308D5A16C07E00168C90528
:102C600003D4016821F008010160216C09B12046FC
:102C7000884794F85C1020208840304231D0216889
:102C80000968C9062DD5A86094F835000528206884
:102C9000016806D0490347D5006800031DD4616C64
:102CA0001CE021F0160101602068416921F08001DB
:102CB0004161206C08B9A06C20B12068016821F046
:102CC0000801016094F85C103F208840A86084F8F7
:102CD000358084F83490216D1FE0E16B09B1204606
:102CE0008847606D00282BD0606DC00714D0052088
:102CF00084F835002068016821F001010160009826
:102D0000401C0090B84203D820680068C007F6D184
:102D100084F8358084F83490E16C002910D001B03B
:102D20002046BDE8F04308470168C905D5D40168CD
:102D300021F01001016084F8358084F83490CCE7EC
:102D4000BDE8F8830C0000202DE9F041044600F0B6
:102D500055F906465CB1022084F83500002584F858
:102D600034502068016821F0010101600DE001206C
:102D7000BDE8F08100F042F9801B052805D920202C
:102D80006065032084F83500F2E720680068C0071A
:102D9000F0D12268116820480140D4E901031843AA
:102DA000D4E903363343184363691843A3691843CE
:102DB000E3691843236A18430843616A042903D16D
:102DC000D4E90B1319430843106020684069666A10
:102DD00020F0070130460E43012704280CD1A06AD9
:102DE0000643E06A40B12046FFF756FE20B140207E
:102DF000606584F83570BAE7206846612046FFF7C1
:102E000037FE94F85C203F2191408160656584F82D
:102E100035700020ACE700003F8010F02DE9F84F3E
:102E2000DFF8B8A10022012403254FF00F090AF1B1
:102E3000040BAAF1040E00BF0B6804FA02F633403B
:102E4000B34273D10F7907F00307012F01D0022F8E
:102E500016D187684FEA420805FA08FC27EA0C07F2
:102E6000D1F80CC00CFA08FC4CEA070CC0F808C0FA
:102E70004768B7430E79C6F3001696403E43466056
:102E80000E79F643B6070DD0C768560005FA06FC62
:102E900027EA0C07D1F808C00CFA06FC4CEA070C2C
:102EA000C0F80CC00E7906F00306022E10D1D60829
:102EB00000EB8608D8F8206057074FEAD76C09FA6C
:102EC0000CF7BE430F6907FA0CF73743C8F82070B8
:102ED00006684FEA420C05FA0CF7BE430F7907F07B
:102EE000030707FA0CF7374307604E6816F4403FB4
:102EF0006DD03B4E376847F480473760366822F024
:102F0000030706F480460096364E07EB060CDCF805
:102F1000086897073F0F09FA07F826EA0806DFF85E
:102F2000C880404503D14FF000081EE04FE0DFF8B5
:102F3000BC80404502D14FF0010816E0DFF8B080B8
:102F4000404502D14FF002080FE0DFF8A88040456D
:102F500002D14FF0030808E0DFF89C80404502D121
:102F60004FF0040801E04FF0070808FA07F848EAB4
:102F70000608CCF80888DAF800605746D1F804C093
:102F80009E435FEACC2C00D51E433E60DBF8006018
:102F90005F46D1F804C09E435FEA8C2C00D51E43E7
:102FA0003E60DEF800607746D1F804C09E435FEAD9
:102FB0008C3C00D51E433E60084F083F3E68D1F868
:102FC00004C09E435FEACC3C00D51E433E60521CC9
:102FD000102AFFF431AFBDE8F88F0000083C014033
:102FE000443802400030014000000240000402402A
:102FF00000080240000C02400010024001488068B6
:1030000070470000000000200248816802781144E7
:1030100081607047000000200B4810B5016841F442
:1030200000710160016841F480610160016841F450
:1030300080710160032000F09FF80F2000F006F877
:1030400000F050F8002010BD003C024030B50546AD
:10305000204887B00024016841F001010160006848
:1030600006A900F00100009001A800F031F90498D1
:10307000B0B100F04DF9400017494FF08042B0FB6D
:10308000F1F11648491E026040F2E732C0E903241C
:10309000C0E90114846100F045FB040003D015E091
:1030A00000F036F9E8E70D4800F06AFB04000DD1A6
:1030B0001C2000F033F8102D07D2002229461C20D6
:1030C00000F03AF80648056000E0012407B0204609
:1030D00030BD00004038024040420F003C0100205B
:1030E000040000200C4882B0016841F48041016076
:1030F000006800F4804000900748001F016841F01C
:10310000805101600068002200F0805000900F2183
:10311000901E02B000F010B844380240002809DBCD
:1031200000F01F02012191404009800000F1E020E1
:10313000C0F8001170470000F0B40E4B1B680C463D
:10314000C3F30223C3F10705042D00D90425191D7B
:10315000072901D2002300E0DB1E012606FA05F153
:10316000491E214099409E40761E16403143F0BCD6
:1031700001F001B90CED00E0064900F00702086813
:103180004FF6FF03184040EA0220034A104308604C
:10319000704700000CED00E00000FA052DE9F04753
:1031A0000E46050065D0DFF81481D8F80000F7B2AC
:1031B00000F00700B04207D288F80070D8F800008D
:1031C00000F00700B04254D128683D4C810712D569
:1031D000400703D5206840F4E050206028780007BD
:1031E00003D5206840F4604020602068A96820F082
:1031F000F000084320602878C0072DD03049686867
:103200000839012812D0022813D0032811D00968E8
:10321000890700292DDA216821F00301014321608B
:10322000FFF7ECFE814641F2883A0EE00968890317
:10323000EFE709688901ECE7FFF7E0FEA0EB090181
:10324000514502D90320BDE8F0872068696800F085
:103250000C00B0EB810FEFD1D8F80010404601F020
:103260000701B14207D90770006800F00700B042BB
:1032700001D00120E7E72878400705D52068E968F4
:1032800020F4E050084320602878000706D5206825
:10329000296920F4604040EAC100206000F058F83D
:1032A0002168084AC1F30311515CC840064908600F
:1032B00006480068FFF7CAFE0020C4E7003C024051
:1032C00008380240C64D00080C0000200400002011
:1032D0000F2202600C4A136803F003034360136873
:1032E00003F0F0038360136803F4E053C3601268D3
:1032F0004FF4E05303EAD20202610448006800F090
:10330000070008607047000008380240003C024097
:103310000448054900680968044AC1F38221515CE8
:10332000C84070470C00002008380240D64D000805
:103330000448054900680968044AC1F34231515CF8
:10334000C84070470C00002008380240D64D0008E5
:10335000154810B5006810F00C02144813D0144939
:10336000042A0FD0082A0ED10F4C241F226823688C
:1033700002F03F025B0207D52068C0F38810A0FB73
:10338000010106E0084610BD2168C1F38811A1FBC8
:1033900000010023FDF75DF82168C1F30141491CDC
:1033A0004900B0FBF1F010BD083802400024F400E1
:1033B00040787D012DE9F84F04006ED02078DFF8C9
:1033C0004C93C007A9F104054AD009F10400016833
:1033D000C1F38101012908D00068C0F381000228EF
:1033E0000AD1D9F80000400206D52868800337D5F5
:1033F00060680028E1D033E06068B0F5803F10D00D
:10340000B0F5A02F286810D020F4803028602868FC
:1034100020F4802028606068A8B1FFF7EFFD064621
:103420000DE0286840F48030F4E740F48020286004
:10343000F7E700BFFFF7E2FD801B642873D8286818
:103440008003F7D50CE0FFF7D9FD064605E000BF85
:10345000FFF7D4FD801B6428F0D828688003F7D4D8
:103460002078DFF8AC8280074FF0000A3ED5A748ED
:10347000001D016811F00C0F08D00068C0F3810036
:1034800002280BD1D9F80000400207D42868800731
:1034900016D5E068012800D112E033E1E068B8B148
:1034A0000120C8F80000FFF7A9FD064605E000BFAF
:1034B000FFF7A4FD801B0228C0D828688007F7D535
:1034C0002868216920F0F80040EAC10028600DE07A
:1034D000C8F800A0FFF792FD064604E0FFF78EFD56
:1034E000801B02281FD828688007F7D4207800079F
:1034F00022D5864F87486169703771B1012101601B
:10350000FFF77CFD064604E0FFF778FD801B0228EC
:1035100009D838688007F7D50EE0C0F800A0FFF79B
:103520006DFD064605E082E0FFF768FD801B02287E
:103530007DD838688007F7D42078400768D5DFF851
:10354000CCB100270BF13C0BDBF80000C0000BD422
:10355000DBF8001041F08051CBF80010DBF80000E0
:10356000012700F0805000906B4E3068C00510D4E9
:10357000306840F480703060FFF740FD009005E057
:10358000FFF73CFD0099401A022850D83068C0056A
:10359000F6D55E4EA0686C3601280FD0052830683D
:1035A00010D020F001003060306820F0040030605E
:1035B000A068B8B1FFF722FD00900FE0306840F03E
:1035C0000100F4E740F004003060F7E7FFF716FD74
:1035D0000099411A41F28830814266D830688007EC
:1035E000F4D50EE0FFF70AFD009007E0FFF706FDB7
:1035F0000099411A41F28830814256D830688007DC
:10360000F4D42FB1DBF8001021F08051CBF800107A
:10361000A069C8B33D49091D0968C1F381010229A8
:103620004AD00228504607D0C8F8600000E03CE0CD
:10363000FFF7E4FC04463BE04746C8F86000FFF7AC
:10364000DDFC064605E000BFFFF7D8FC801B022822
:103650002BD828688001F7D4D4E907010843A16A70
:103660002E4A490802EB0141626A41EA821108438D
:1036700094F82C1040EA0161C9F800100120386666
:10368000FFF7BCFC044606E03EE000BFFFF7B6FCD7
:10369000001B022809D828688001F7D534E000BF54
:1036A000FFF7ACFC001B022802D90320BDE8F88F0D
:1036B00028688001F4D427E00128F7D0D9F8000069
:1036C000E26900F4800191421CD1226A00F03F01BE
:1036D000914217D147F6C071626A0140B1EB821F77
:1036E00010D1A26A4FF0FF3300F4403103EB5202D5
:1036F000B1EB024F06D194F82C1000F07060B0EBE3
:10370000016F01D00120D1E70020CFE7043802404B
:1037100000004742800E4742007000400000FFFF5B
:103720007047704710B5040003D094F83D0010B105
:1037300007E0012010BD002084F83C00204600F086
:103740001EF8022084F83D00211D206800F002FCD4
:10375000012084F8460084F83E0084F83F0084F895
:10376000400084F8410084F8420084F8430084F863
:10377000440084F8450084F83D00002010BD7047E7
:1037800090F83D10012901D001207047022180F8F6
:103790003D100168CA6842F00102CA6000680E4923
:1037A00088420ED0B0F1804F0BD00C49884208D02F
:1037B0000B49884205D00B49884202D00A49884209
:1037C00004D1816801F00701062903D0016841F0A6
:1037D000010101600020704700000140000400402A
:1037E00000080040000C004000400140704770B5E8
:1037F0000446006801694FF00005C943890715D4E4
:10380000C168C943890711D4E91E016101202077ED
:10381000206880698007204602D0FFF7E7FF04E0B8
:1038200000F098F8204600F096F8257720680169A6
:10383000C943490717D4C168C943490713D46FF076
:1038400004010161022020772068806910F4407F24
:10385000204602D0FFF7CAFF04E000F07BF82046C4
:1038600000F079F8257720680169C943090716D463
:10387000C168C943090712D46FF00801016104202F
:1038800020772068C0698007204602D0FFF7AEFF8E
:1038900004E000F05FF8204600F05DF8257720682E
:1038A0000169C943C90617D4C168C943C90613D4FD
:1038B0006FF010010161082020772068C06910F4C2
:1038C000407F204602D0FFF791FF04E000F042F86D
:1038D000204600F040F8257720680169C943C907F0
:1038E00008D1C168C943C90704D1891E01612046B6
:1038F00000F032F820680169C943090609D4C1689B
:10390000C943090605D46FF0800101612046FFF725
:1039100007FF20680169C943490609D4C168C94342
:10392000490605D46FF040010161204600F01BF804
:1039300020680169C94389060BD4C168C943890657
:1039400007D46FF0200101612046BDE87040FFF709
:10395000E8BE70BD704770470068B0F1804F01D17C
:10396000FFF752BB704770471CB505A16520CDE934
:1039700000010D4B0DA215A1042000F089FD1CBD16
:1039800048414C5F5541525445785F5278457665C1
:103990006E7443616C6C6261636B20697320727535
:1039A0006E6E696E67000000084F00082E2E5C42A4
:1039B00053505C55534152545C6273705F75617231
:1039C000745F6472697665722E6300004E4F5F54B7
:1039D0004147000070470000F8B5016804460868D8
:1039E000CA684B6910F00F0F4FF0000559D003F073
:1039F000010602F49077374365D0C10705D0D105A1
:103A000003D5216C41F001012164410705D5D90797
:103A100003D0216C41F002012164810705D5D9074B
:103A200003D0216C41F004012164010707D502F0A5
:103A30002001314303D0216C41F008012164216C45
:103A400000293AD0800604D5900602D5204600F021
:103A5000FCFA20684069216CC0F38010090700D48B
:103A600060B3204600F0CAFA20684069400621D5BC
:103A70002068143050E8001F21F0400140E8001297
:103A8000002AF5D1A06BA8B16D490165A06BFFF7C5
:103A900079F8002811D0A06B016D01B0BDE8F040AD
:103AA000084783060FD593060DD52046BDE8F8409C
:103AB00000F0CBBA2046FFF78DFFF8BD2046FFF798
:103AC00089FF2564F8BD266B2023012E7BD1C60615
:103AD00079D5D60677D508684868009048694006C9
:103AE00042D5A16B086840680004000CEAD0A28DA2
:103AF0008242E7D9E085C869B0F5807F2DD0206883
:103B00000C3050E8001F21F4807140E80012002AB8
:103B1000F5D12068143050E8001F21F0010140E881
:103B20000012002AF5D12068143050E8001F21F05F
:103B3000400140E80012002AF5D184F83E302563A8
:103B400020680C3050E8001F21F0100140E80012FE
:103B5000002AF5D1A06BFEF7CCFFA08DE18DBDE86A
:103B6000F840401A00F0B4BFA08DE18D401A81B238
:103B7000E08D0028A6D00029A4D020680C3050E8A1
:103B8000002F22F4907240E80026002EF5D1206824
:103B9000143050E8002F22F0010240E80026002EE9
:103BA000F5D184F83E30256320680C3050E8002FB2
:103BB00022F0100240E80023002BF5D12046FFF749
:103BC000D3FEF8BDFFE705062BD5150629D594F8D9
:103BD0003D002128F5D1A068B0F5805F01D12069B2
:103BE000B0B1206A411C2162216800784860E08CF5
:103BF000401E0004000CE084E3D12068C16821F07D
:103C00008001C1602068C16841F04001C160D8E70F
:103C1000206A0088C0F308004860206A801C206287
:103C2000E5E74006CDD55006CBD5CA68204622F040
:103C30004002CA6084F83D3000F091F8C1E700000E
:103C4000ED3F000870B5040004D094F83D00002555
:103C500010B106E0012070BD84F83C50204600F011
:103C600023F8242084F83D002068C16821F4005125
:103C7000C160204600F04AFA2068016921F49041B1
:103C800001612068416921F02A0141612068C16811
:103C900041F40051C1602564202084F83D0084F87F
:103CA0003E00002070BD000070B586B006461421AD
:103CB0006846FCF730FF24493068884241D12348E8
:103CC0000025016841F010010160006800F010005B
:103CD00005901E481438016841F001010160006838
:103CE000694600F0010005904FF4C060009002208A
:103CF000CDE9010503200390072004901448FFF745
:103D00008DF8154C134820604FF00060C4E90105A0
:103D10004014C4E9035080106561C4E9065025626F
:103D200020466562FFF710F808B1FEF7E0FEB463C5
:103D3000002205212520A663FFF7FEF92520FFF7C5
:103D4000EDF906B070BD000000100140443802409B
:103D50000000024040640240DC00002070477047D1
:103D6000FEE70000094808B5016841F480010160E0
:103D70000068002200F48000009005213A20FFF73F
:103D8000DBF9BDE808403A20FFF7C8B930380240F7
:103D9000094808B5016841F080010160016801F03F
:103DA00080010091016841F001010160006800F0AC
:103DB0000100009008BD0000303802400C4810B5EA
:103DC0000A4901604FF4E1314160002181600C2219
:103DD000C160C0E904128161C161FFF733FF0028AF
:103DE00003D0BDE81040FEF782BE10BD00100140B8
:103DF00098000020FEE7FEE72DE9F04107460B485A
:103E000015460E46007808B900F00EFAEFF311845B
:103E1000202080F311882A463146384600F008F801
:103E2000E1B281F31188BDE8F0810000480600206E
:103E300070B50E46144900EB400001EBC005144676
:103E4000E86A183520B101280FD0022805D113E007
:103E5000284600F01FFAA04201D2002411E02246B9
:103E60003146284600F04EFA0BE0284600F012FAE0
:103E7000A042F4D20446F2E73146284600F015FA93
:103E80000446204670BD00004806002010B54FF0E3
:103E9000E020006900F0ECFE012803D0BDE81040EE
:103EA00000F0D0BE10BD000030B593B030216846A0
:103EB000FCF731FE14210CA8FCF72DFE1C48002451
:103EC000016841F080510160006800F0805011905D
:103ED0001848016841F4404101600068022500F47F
:103EE0004040119001200390102004900095069509
:103EF0000820CDE907406420CDE9090504200B9096
:103F00006846FFF757FA08B172B6FEE70F20CDE911
:103F10000C054FF48050CDE90E4003210CA81094FD
:103F2000FFF73CF9002801D072B6FEE713B030BDB0
:103F300040380240007000400248016841F47001BE
:103F40000160704788ED00E00148FFF750BC0000B9
:103F50003C010020F0B502681D4B1E4C9F031E4D16
:103F60001E4E984207D0B84205D0A04203D0A842C6
:103F700001D0B04204D122F0700C4A6842EA0C022F
:103F8000984210D0B8420ED0A0420CD0A8420AD01D
:103F9000B04208D0124CA04205D0124CA04202D030
:103FA000114CA04203D122F44074CA6822434C69E8
:103FB00022F08002224302608A68C2620A6882623A
:103FC000984201D10969016301214161F0BD0000FE
:103FD000000001400004004000080040000C0040C8
:103FE00000400140004401400048014010B5806B92
:103FF0000021C185C184FFF7EDFC10BD01680C31C3
:1040000051E8002F22F4907241E80023002BF5D1F3
:104010000168143151E8002F22F0010241E8002329
:10402000002BF5D1016B012909D101680C3151E850
:10403000002F22F0100241E80023002BF5D12021AF
:1040400080F83E1000210163704708B590F83E10DB
:10405000222901D0022008BD82684FF480539A4281
:1040600001D1016921B1816A9A421BD04AB10AE0AB
:104070000268816A5268C2F308020A80816A891C58
:1040800008E0026972B10268526802F07F020A70A9
:10409000816A491C8162C18D491E0904090CC185D0
:1040A00003D019E002685268F1E70168CA6822F09B
:1040B0002002CA600168CA6822F48072CA6001687E
:1040C0004A6922F001024A61202180F83E10016B0A
:1040D000012903D0FFF742FE002008BD0021016343
:1040E00001680C3151E8002F22F0100241E8002352
:1040F000002BF5D101680A68D20602D50A68496822
:104100000091818DFFF730FCE6E7000070B50446B2
:1041100000680169E26821F440511143016121699D
:10412000A068E26908436169114308432168CA68CD
:1041300049F20C639A430243CA6020684169A2694C
:1041400021F440711143416131492068884202D015
:104150003049884202D1FFF7EBF801E0FFF7D8F8C9
:10416000E2690023192164253226B2F5004F626806
:1041700028D0A0FB0101930F9200FCF76AF90146D9
:10418000B0FBF5F06FF01802504301EB800006EB36
:104190000010B0FBF5F000F0F002B1FBF5F002EB1F
:1041A0000012B1FBF5F06FF01803584301EB8000EB
:1041B00006EB0010B0FBF5F000F00F002168104492
:1041C000886070BDA0FB010192185B41FCF741F9CA
:1041D0000146B0FBF5F00201B1FBF5F06FF01803FA
:1041E000584301EB800006EBC000B0FBF5F000F097
:1041F000F80002EB4002B1FBF5F0584301EB800000
:1042000006EBC000B0FBF5F000F00700D6E70000B9
:1042100000100140001401400148FFF7DDBB000021
:1042200098000020FEE7000010B5134C0320206129
:10423000606112A0A06104F1A800E0614FF4806009
:1042400020620020A0620DA222660221E16260626B
:1042500004F59562626610222067C4E91A2061673E
:1042600009A1E01DFCF75AFB08A12046FCF756FB0C
:104270002020A07110BD0000480600205465726D1A
:10428000696E616C0000000052545400534547476A
:10429000455200000269C1688A4203D88068401A0A
:1042A000104400E0501A401E70472DE9F047C468E2
:1042B0001746894606464FF000083069A04201D9EA
:1042C000051B02E0B168201A0D1AB0686D1E001BB4
:1042D000A84200D80546BD4200D33D4670682A4634
:1042E00020444946FCF7A8FBB0687F1B2C44A84437
:1042F000A944A04200D10024F460002FDDD1404643
:10430000BDE8F0872DE9F04104468846D4E902076C
:10431000C51BE168606816460844B54206D94146A7
:10432000FCF78AFBB819E060BDE8F0812A464146F7
:10433000FCF782FB761B08EB050132466068FCF750
:104340007BFBE660F0E703B401984100009850EA77
:10435000C12018BF04204A0D18BF40F0010040F2F0
:10436000FF72B2EB515F08BF40F00200012808BFA6
:10437000052002B070470907090E002804DB00F190
:10438000E02080F80014704700F00F0000F1E020FA
:1043900080F8141D704730380A2801D20120704778
:1043A00000207047F0B585B0070007D11E4840F2E5
:1043B000E112036893B11D491DA09847214D0024C7
:1043C000052695F8F000C0B100F02EFA04EB441079
:1043D000411991F85100012812D017E01348CDE996
:1043E0000302009212A118A3CDE9013103461FA2D6
:1043F00025A1002000F04CF8FEE705B03046F0BDE6
:104400001E2238463231FCF7CCFA30B1641CE4B2DB
:10441000052CDBD300F018FAEFE704EB4410284436
:1044200090F83160F6E700004C000020704E000864
:1044300074616720213D202828766F6964202A292D
:1044400030290000000F002028257329206861739F
:1044500020617373657274206661696C65642061A4
:10446000742025733A256C642E0000002E2E5C65A6
:104470006173796C6F676765725C7372635C656C9E
:104480006F672E6300000000656C6F67000000001E
:104490000FB42DE9F04F06468BB08B460846FCF76B
:1044A00061FA00240A940746A146099405940694EB
:1044B00007940894052E08D9B34840F23F220368B8
:1044C000002B7DD0B149B2A09847B84D95F8F100C6
:1044D000002876D02878B04273D35846FFF762FFA1
:1044E000B0426ED3691C5846FCF706FA002868D023
:1044F0000DF1680A00F098F9A84695F8F500A5F5C1
:10450000806570B12946AAA2204600F0B7F904469A
:104510009D4829191C3050F82620204600F0AEF99D
:1045200004440121304600F02FFA40B19648291981
:10453000001D50F82620204600F0A0F90444022176
:10454000304600F021FAC8B129195A46204600F039
:1045500095F904440F2F0BD8C7F10F01202205A8AD
:10456000FCF7AFFA291905AA204600F087F90444A0
:10457000291990A2204600F081F904441C213046FC
:1045800000F002FA00284BD029198BA2204600F037
:1045900075F904440421304600F0F6F9A8B100F0A2
:1045A00065F902462919204600F068F904441821EB
:1045B000304600F0E9F940B129197EA2204601E019
:1045C00035E0DBE000F05AF904440821304600F001
:1045D000DBF990B100F048F902462919204600F0B5
:1045E0004DF904441021304600F0CEF928B12919C4
:1045F00070A2204600F042F904441021304600F039
:10460000C3F938B100F031F902462919204600F00B
:1046100035F90444291969A2204600F02FF9044411
:1046200020213046169A00F00FFAE0B90EE0574804
:10463000CDE90302009256A161A3CDE90131034601
:1046400068A26FA10020FFF723FFFEE7402130465C
:10465000179A00F0F9F930B980213046189A00F025
:10466000FCF9002856D0291967A2204600F006F967
:10467000044420213046169A00F0E6F9D0B12919F9
:104680002046169A00F0FAF8044440213046179A62
:1046900000F0DAF910B129195CA207E08021304658
:1046A000189A00F0DAF928B1291942A2204600F040
:1046B000E5F8044480213046189A00F0CEF9B8B1EC
:1046C00053A2052109A8189BFBF760FF291909AA25
:1046D000204600F0D3F8044440213046179A00F0F9
:1046E000B3F928B1291933A2204600F0C7F80444D1
:1046F00040213046179A00F0A7F928B12919204621
:10470000179A00F0BBF80444291942A2204600F091
:10471000B5F80444C4F5806128195346199AFBF78B
:104720000FFF04444FF48062944204D8002802DB57
:10473000601D904201D940F2FB3498F820004646B3
:1047400040B11A4905F804902031A1F58460FCF7C6
:10475000D3F888B196F8F50028B129192EA2204681
:1047600000F08CF8044429192DA2204600F086F8A8
:1047700001192C4800F07BF800F066F80BB0BDE89A
:10478000F00F5DF814FB00004C000020884E00087C
:104790006C6576656C203C3D20454C4F475F4C5620
:1047A0004C5F564552424F5345000000000F002019
:1047B0001B5B0000200000005B0000005D2000008B
:1047C00028257329206861732061737365727420D2
:1047D0006661696C65642061742025733A256C6498
:1047E0002E0000002E2E5C656173796C6F67676523
:1047F000725C7372635C656C6F672E63000000000F
:10480000656C6F6700000000280000003A0000009F
:10481000256C6400290000001B5B306D0000000067
:104820000A000000000B002070B5064C012594F82A
:10483000F20020B100F020F884F8F45070BD84F844
:10484000F35070BD000F002070B5064C002594F8A1
:10485000F20020B100F011F884F8F45070BD84F833
:10486000F35070BD000F00207047704770470A4634
:1048700001460020FFF7C0BA704770472DE9F043AA
:10488000DFF88C90DFF88C8085B00D00064614466A
:10489000174606D1D8F800302BB12C2249461EA06D
:1048A00098477CB115E01CA202922C20CDE9039020
:1048B0001AA3CDE90003164B21A229A10020FFF77E
:1048C000E7FDFEE7D8F800307BB12D22104926A085
:1048D00098474FF480622078B0B13146761C9142FF
:1048E00012D205F8010B641CF5E71FA202922D20DD
:1048F000CDE9039009A3CDE90003054B10A218A14F
:104900000020FFF7C5FDFEE705B0E01BBDE8F08322
:10491000C04E00084C0000206473740028257329E1
:104920002068617320617373657274206661696CBD
:1049300065642061742025733A256C642E000000A4
:104940002E2E5C656173796C6F676765725C73723C
:10495000635C656C6F675F7574696C732E630000D0
:10496000656C6F6700000000737263008A68002A3C
:1049700001DCFDF72BB9521E8A604A68C0B2531C95
:104980004B6010707047000030B585B00D4604468E
:10499000052807D910484FF43872036863B10F49EE
:1049A0000FA09847154800EB8400D0F8D8002840A5
:1049B00000D0012005B030BD0848CDE903020092C7
:1049C00007A10FA3CDE90131034616A21CA10020C7
:1049D000FFF75EFDFEE700004C000020944E00084B
:1049E0006C6576656C203C3D20454C4F475F4C56CE
:1049F0004C5F564552424F5345000000000F0020C7
:104A0000282573292068617320617373657274208F
:104A10006661696C65642061742025733A256C6455
:104A20002E0000002E2E5C656173796C6F676765E0
:104A3000725C7372635C656C6F672E6300000000CC
:104A4000656C6F670000000010B522B1FFF79CFF96
:104A500008B1012010BD002010BD10B522B1FFF734
:104A600093FF08B1012010BD002010BD18B140898E
:104A7000086000207047FF20704720B14289114430
:104A8000418100207047FF2070470000FEF7C4FA04
:104A9000FFF70AFAFFF77CF9FFF764F9FFF78EF9E1
:104AA00001A0FBF767FDFEE72031200D0A000000A2
:104AB0000648416B096829B1416BC968C9684968F2
:104AC000816270474FF0FF31FAE7000010000020CC
:104AD00070B586B01A4C00260546039603A9606897
:104AE000FFF7C4FF10B117A1AF2012E003980A210D
:104AF000B0FBF1F201FB12006D1E291A6068FFF78E
:104B0000BCFF049604A96068FFF7B0FF58B10DA17F
:104B1000BF20CDE90001104B10A218A10120FFF722
:104B2000B7FC06B070BD17A1C220049A8DE807003B
:104B3000094B0AA211A10320FFF7AAFCF1E700002C
:104B4000800000206765745F686561645F706F73E3
:104B5000206661696C6564004F4F00082E2E5C4230
:104B600053505C55534152545C6273705F7561726F
:104B7000745F6472697665722E6300004E4F5F54F5
:104B8000414700005B69646C655D746573745F68C0
:104B90006561645F706F73203D205B25645D00007C
:104BA000D0E9013201699A60D0E901235A604A686C
:104BB000824201D182684A60002202610868401E78
:104BC00008600868704742684A6093688B60936821
:104BD0005960916008610168491C016070470000DC
:104BE000164810B5016B11B10121C16110BD002142
:104BF000C1610169124A01E0B9B1491E01EB8103AB
:104C000052F82330002BF7D001EB810302EB830233
:104C100002F1080453685B685360A34201D15B68EA
:104C20005360DA680260016110BD502080F3118882
:104C3000BFF34F8FBFF36F8FFEE70000100000201F
:104C40008401002010B5502080F31188BFF34F8FEE
:104C5000BFF36F8F00F01AF818B104494FF080507D
:104C60000860002080F3118810BD000004ED00E012
:104C70000548416919B1006B18B100207047012047
:104C80007047022070470000100000202DE9F0411D
:104C90002E4C0027206B28B1A069401CA06138462B
:104CA000BDE8F081E668761CE66013D1606B0068B1
:104CB00038B1502080F31188BFF34F8FBFF36F8F4F
:104CC000FEE7606BA16B6163A063206A401C2062F9
:104CD000FFF7EEFEA06ADFF87880864209D3606BAA
:104CE0000068A0B1606BC068C5686868864211D270
:104CF000A0622068C06A00EB800158F821000128FA
:104D000000D90127E0690028C9D00127C7E74FF083
:104D1000FF30EDE7281DFFF743FFA86A18B105F142
:104D20001800FFF73DFFE86A2169884200D9206139
:104D300000EB800108EB8100291DFFF744FFE86AC2
:104D40002168C96A8842CAD30127C8E71000002039
:104D50008401002010B500290AD00878002807D067
:104D600005487844FDF748FA002801D0002010BD1E
:104D70000248784410BD0000760300006E03000076
:104D800010B500290AD00878002807D005487844D3
:104D9000FDF732FA002801D0002010BD0248784407
:104DA00010BD0000660300005E0300004FF040707D
:104DB000E1EE100A7047FCF761BAFCF795BB0006FC
:104DC000101600061016000000000000000001028E
:104DD0000304060708090000000001020304656CD3
:104DE0006F675F737461727400656C6F675F737473
:104DF0006F7000656C6F675F7365745F6F7574705B
:104E000075745F656E61626C656400656C6F675F89
:104E10007365745F746578745F636F6C6F725F65E0
:104E20006E61626C656400656C6F675F7365745F6B
:104E3000666D7400656C6F675F7365745F66696C3F
:104E400074657200656C6F675F7365745F66696C2B
:104E50007465725F6C766C00656C6F675F73657408
:104E60005F66696C7465725F7461675F6C766C0015
:104E7000656C6F675F6765745F66696C7465725FA8
:104E80007461675F6C766C00656C6F675F6F7574DB
:104E9000707574006765745F666D745F656E6162DE
:104EA0006C656400656C6F675F66696E645F6C76E5
:104EB0006C00656C6F675F66696E645F7461670044
:104EC000656C6F675F73747263707900656C6F6790
:104ED0005F6370796C6E00656C6F675F6D656D63A5
:104EE000707900756172745F6472697665725F666D
:104EF000756E63006765745F63697263756C617278
:104F00005F6275666665720048414C5F5541525458
:104F100045785F52784576656E7443616C6C62616A
:104F2000636B00646D615F68616C665F6972715F7D
:104F300063616C6C6261636B00646D615F636F6D74
:104F4000705F6972715F63616C6C6261636B007545
:104F50006172745F69646C655F6972715F63616CD3
:104F60006C6261636B003031323334353637383937
:104F700041424344454640305800303132333435A5
:104F80003637383961626364656640307800040002
:104F900000080000000000000002000100001000F6
:104FA0000000000000000000303132333435363765
:104FB0003839616263646566787000303132333449
:104FC00035363738394142434445465850003A74E3
:104FD00074003A7474003A747400000002400000D7
:104FE000000000A00000000005400000000000C814
:104FF000000000000C4000000000409C0000000089
:10500000194000000020BCBE000000003440000039
:10501000BFC91B8E00000004B5400000504BCFD02C
:105020006607E2CF010000006C4100003E8251AAF9
:10503000DFEEA73401000000D9420000DCB5A0E299
:105040003A301F97FFFFFFFFB4450000FD25A0C8C1
:10505000E9A3C14FFFFFFFFFFF3F000000000080FA
:1050600000000000FF3F0000000000800000000082
:10507000412F0000442F0000452F0000492F000061
:10508000562F0000572F000033313B32326D0000A5
:1050900033323B32326D000033333B32326D00002D
:1050A00033343B32326D000033353B32326D000019
:1050B00033363B32326D00000452000800000020FD
:1050C00098000000D40100089C52000898000020BD
:1050D000C0160000F00100081C00000043000000A2
:1050E000F8FFFFFF0C0000000E0000000F000000A2
:1050F0002E0000001001000043000000F8FFFFFF39
:1051000000404040404040404040414141414140DA
:10511000404040404040404040404040404040408F
:10512000400502020202020202020202020202021E
:105130000220202020202020202020020202020223
:10514000020290909090909010101010101010107B
:105150001010101010101010101010100202020287
:1051600002028888888888880808080808080808CB
:1051700008080808080808080808080802020202C7
:1051800040000000000000000000000000000000DF
:10519000000000000000000000000000000000000F
:1051A00000000000000000000000000000000000FF
:1051B00000000000000000000000000000000000EF
:1051C00000000000000000000000000000000000DF
:1051D00000000000000000000000000000000000CF
:1051E00000000000000000000000000000000000BF
:1051F00000000000000000000000000000000000AF
:10520000000000000100000010000000000000008D
:105210000024F40000000000000000000000000076
:10522000000000000000000000000000000000007E
:10523000000000000000000000000000000000006E
:10524000000000000000000000000000000000005E
:1052500000000000705000087850000884500008DA
:105260007C5000087450000880500008A8500008C6
:105270008850000898500008B0500008905000086E
:10528000A050000800000000000000000000000026
:0C52900000000000000000000000000012
:040000050800019955
:00000001FF
