:020000040800F2
:10000000585A0020AD030008AF330008033300083E
:10001000AD330008AF220008793800080000000066
:10002000000000000000000000000000ED020008D9
:10003000B12200080000000049030008A5340008B0
:10004000C7030008C7030008C7030008C703000868
:10005000C7030008C7030008C7030008C703000858
:10006000C7030008C7030008C7030008C703000848
:10007000C7030008C7030008C7030008C703000838
:10008000C7030008C7030008C703000800000000FA
:10009000000000000000000000000000C70300088E
:1000A000C7030008C7030008C7030008C703000808
:1000B00061350008C7030008C7030008C70300082C
:1000C000C7030008C7030008C7030008C7030008E8
:1000D000C70300086D380008C703000800000000CF
:1000E000C7030008C7030008C7030008000000009A
:1000F000000000000000000000000000C70300082E
:1001000000000000C7030008C7030008C703000879
:1001100000000000000000000000000000000000DF
:10012000C7030008C7030008C7030008C703000887
:10013000C7030008000000000000000000000000ED
:10014000000000000000000000000000C7030008DD
:10015000C7030008C7030008C7030008C703000857
:10016000C7030008C70300080000000000000000EB
:10017000000000000000000000000000000000007F
:1001800000000000C703000800000000000000009D
:10019000C7030008C703000800F002F800F096F853
:1001A0000AA090E8000C82448344AAF10107DA45D2
:1001B00001D100F08BF8AFF2090EBAE80F0013F08E
:1001C000010F18BFFB1A43F0010318479C6300009E
:1001D000BC630000103A24BF78C878C1FAD852072F
:1001E00024BF30C830C144BF04680C6070470000B1
:1001F0000023002400250026103A28BF78C1FBD830
:10020000520728BF30C148BF0B6070476E2900F00D
:100210008185702900F09182662905F0CC876529D7
:1002200005F0C987672905F0C687612905F0C587EC
:1002300003681B0A28BF41F08001692900F002828F
:10024000642900F0FF81752900F0FC816F2900F01E
:100250006E86782900F05D82E92900F00986E4299C
:1002600000F00686F52900F00386EF2900F06B8682
:10027000F82900F05C820368DB0928BF41F08001A7
:10028000632900F08A85732900F08F85E32901F046
:100290009182F32901F09682002070471FB505F086
:1002A00085FF9DE8030000F06DFC01F0E5FA040015
:1002B0000020002105F064FF401C60600020002148
:1002C00005F048FFE0601FBD10B510BD01F0A6FAB3
:1002D0001146FFF7E3FF04F049F901F083FB03B493
:1002E000FFF7F2FF03BC01F0B3FB00002C4B1968D1
:1002F0000868B0E8F04F80F30988BFF36F8F4FF0C4
:10030000000080F311887047000000000848006872
:10031000006880F308884FF0000080F3148862B60C
:1003200061B6BFF34F8FBFF36F8F00DF00BF00BF19
:1003300008ED00E0DFF80C00016841F47001016095
:10034000704700BF88ED00E0EFF30980BFF36F8FC7
:10035000134B1A681EF0100F08BF20ED108A20E919
:10036000F04F106009B44FF0500080F31188BFF3D4
:100370004F8FBFF36F8F05F09FF94FF0000080F3B0
:10038000118809BC19680868B0E8F04F1EF0100F1A
:1003900008BFB0EC108A80F30988BFF36F8F7047F5
:1003A0001C000020EFF305807047000009488047DB
:1003B00009480047FEE7FEE7FEE7FEE7FEE7FEE747
:1003C000FEE7FEE7FEE7FEE704480549054A064B5F
:1003D000704700005135000899010008585400206A
:1003E000585A0020585600205856002070B506462E
:1003F00000F0ACFB056806F10B0020F00704B442E6
:100400009CBF002070BD2B466A68BAB11068A0423C
:1004100010D304F1080188423CBF5068586007D3EC
:100420005168101941601168091B0160586014601F
:10043000101D70BD13465268002AE7D12146284698
:1004400000F08CFB0028DED170BD53EA020C00F0F6
:1004500069802DE9F04B4FF00006002B1FBFB3FA67
:1004600083F503FA05F424FA05F65E4012BF16433D
:10047000B2FA82F502FA05F4C5F120051EBF22FA90
:1004800005FC44EA0C04203556EA044C4FEA1444B7
:1004900018BF641C4FF000084FF00009904271EB48
:1004A000030C39D3002919BFB1FA81F701FA07F615
:1004B000B0FA80F700FA07F6C7F120071EBF20FA4E
:1004C00007FC46EA0C062037B6FBF4FCA7EB050751
:1004D000103F07F01F0BCBF120060CFA0BFB2CFA98
:1004E00006F644BFB3460026202FA4BF5E464FF059
:1004F000000B5BEA060C08BF4FF0010B19EB0B0970
:10050000ABFB027C48EB0608C01B06FB02CC0BFBD6
:1005100003CC71EB0C01C1E70B460246414648464D
:10052000BDE8F08B13B54FF000004FF00001AFF3C2
:100530000080BDE81C4070477CB51D4616460C0087
:10054000009001D02044401E074B7B442A46694658
:100550000190304600F0F7FB05461CB100206946CB
:1005600000F004FC28467CBD290800000FB47CB5CF
:100570000C0009AA009001D02044401E084B7B4487
:1005800069460190089800F0DEFB05461CB100208A
:10059000694600F0EBFB28467CBC5DF814FB0000CC
:1005A000F507000070B5044685690068C10601D5ED
:1005B000302600E02026C00707D070BDD4E9012115
:1005C00030469047206A401C20626D1EF6D570BDF3
:1005D00070B5044685690078C00707D170BDD4E9BD
:1005E000012120209047206A401C20626D1EF6D514
:1005F00070BD70B50C460546012A05D028788006E6
:1006000000D5EA69002302E0012305E05B1C934268
:1006100002D2E05C0028F9D1A869E618C01AA861E6
:10062000286A184428622846FFF7BCFF04E0D5E991
:10063000012114F8010B9047B442F8D32846FFF784
:10064000C7FF70BD2DE9F0410646002410687529EA
:10065000314616A510D000F0F2FA002802DA404226
:1006600013A507E031688A0701D512A502E0490702
:1006700004D511A5012401E000F0EAFA00210A22C4
:1006800006F1240709E0B0FBF2FCB0FBF2F302FB39
:100690001C00303078541846491C0028F3D12346FA
:1006A0002A463046BDE8F04100F0DBBA0000000009
:1006B0002D0000002B00000020000000F0B40D46CB
:1006C0000188090502D5214C7C4402E01F4C7C4482
:1006D0000E34002100F1240608E002F00F07120991
:1006E000E75D42EA03721B097754491C52EA03078B
:1006F000F3D102780023120704D5702D06D009B17A
:10070000022311342246F0BC00F0ABBA01231034AE
:10071000F8E770B504460D462146106800F098FAD7
:10072000024629462046BDE870400023C6E7D21D98
:1007300022F00703D3E90023C0E70368126843F0FF
:10074000200303600823C3610023B7E7225D000094
:100750002DE9F05F894604464FF0000ADFF874B1D6
:10076000FB44C0F820A02046E1688847002874D0E8
:10077000252806D0D4E901219047206A401C206238
:10078000F1E700265F462046E168884720280546B5
:1007900007DB312D05D2781910F8200C08B106437B
:1007A000F1E7B00701D526F00406C4F81CA0002725
:1007B000C4F818A02A2D09D0284603F016F938B33A
:1007C00004EB8708303DC8F8185019E059F8041BAD
:1007D000204604EB87029161E1688847012F0546B6
:1007E00018D1E069002820DA26F020061DE0D8F8AC
:1007F000180000EB800005EB40003038C8F8180006
:100800002046E1688847054603F0EFF80028EED15E
:10081000012F0AD02E2D08D12046E16888477F1C81
:100820000546022F46F02006C4DBA069002803DA43
:10083000404246F00106A061F00701D026F0100604
:100840006C2D0BD0682D09D04C2D39D06A2D35D0A8
:10085000742D35D07A2D33D016E038E0E1682F467C
:1008600020468847B842054609D16C2F26D04FF460
:100870008060E168064320468847054604E06C2F07
:100880001AD04FF4807006430DB3A5F1410019282A
:1008900002D8203546F400664A462946204626609E
:1008A0004E46FFF7B3FC80B101280BD0F61D26F0B1
:1008B000070000F1080956E74020E4E78020D8E768
:1008C0000020D6E706F104094DE7284652E7206AE2
:1008D000BDE8F09FB25C000030B505460B462A46E5
:1008E00013F8014B12F8010B08B1A042F8D01CB16B
:1008F000002802D06D1CF1E7284630BD40EA010314
:10090000024630B59B0710D14FF0013400E008C219
:1009100008C91D1B9D4315EAC41FF8D013F0FF0141
:1009200002F8011B0DD01B0AF8E711F8013B002B60
:1009300002F8013B05D011F8013B002B02F8013B06
:10094000F3D130BD10B5431C02E010F8011B71B1AA
:100950008107FAD14FF0013202C88C1A8C4314EA95
:10096000C211F9D0C01A0A0603D0C01E10BDC01AA9
:1009700010BD0A0401D0801E10BD0902FCD0401E2B
:1009800010BD40EA010370B59B072ED14FF0013630
:10099000042A2AD308C810C99D1B9D43121F15EABB
:1009A000C61517D0D8B2E1B2401A50EA056110D18D
:1009B00098B2A1B2401A50EA05410AD123F07F4013
:1009C00024F07F41401A50EA052102D1180EA0EB15
:1009D000146070BDA342DBD018BA21BA884201D995
:1009E000012070BD4FF0FF3070BD0AB9002070BD0E
:1009F00010F8013B11F8014B63B1A3420AD1521E1A
:100A000008D010F8013B11F8014B1BB1A34201D1F2
:100A1000521EEDD1181B70BD032A40F2308010F039
:100A2000030C00F0158011F8013BBCF1020F624489
:100A300098BF11F801CB00F8013B38BF11F8013B1A
:100A4000A2F1040298BF00F801CB38BF00F8013BC7
:100A500011F0030300F08282083AC0F0088051F8D8
:100A6000043B083A51F804CBA0E80810F5E7121D42
:100A70005CBF51F8043B40F8043BAFF30080D20761
:100A800024BF11F8013B11F801CB48BF11F8012B2D
:100A900024BF00F8013B00F801CB48BF00F8012B50
:100AA000704702F0FF0343EA032242EA024200F0E9
:100AB00002B84FF000020429C0F0128010F0030CBD
:100AC00000F01B80CCF1040CBCF1020F18BF00F841
:100AD000012BA8BF20F8022BA1EB0C0100F00DB8F0
:100AE0005FEAC17C24BF00F8012B00F8012B48BF4E
:100AF00000F8012B70474FF0000200B513469446F2
:100B00009646203922BFA0E80C50A0E80C50B1F165
:100B10002001BFF4F7AF090728BFA0E80C5048BF79
:100B20000CC05DF804EB890028BF40F8042B08BF17
:100B3000704748BF20F8022B11F0804F18BF00F813
:100B4000012B70477047704770470000004870479E
:100B5000FC530020704770477047704738B5044613
:100B60000A4600206946AFF30080002808BF38BD60
:100B700002460099204600F027FA012038BD0120E6
:100B800000F044BEF8B5AFF30080054600200C46E7
:100B9000102000BF0646A819A0420DD9324669466A
:100BA0000020AFF30080070008BF00F02FFE009880
:100BB000A04218BF0546C419FFF7C8FF05600746E5
:100BC000F01D20F007004619284600F00AF8B4424C
:100BD00008BFF8BDA21B31463868BDE8F84000F0F8
:100BE000F3B900210160C0E901107047102070477F
:100BF00070B50446051FFFF7A9FF0068002C14BF5D
:100C0000446870BD002C18BFAC423CBF20466468ED
:100C1000F8D301680A18AA4218BF456003D12A68B0
:100C200005461144016028684119A1421CBF6C604F
:100C300070BD6168696021680844286070BD0968FA
:100C40004A0501D540B27047C905FCD500B27047CE
:100C500009684A0501D5C0B27047C905FCD580B204
:100C600070472DE9F0470D4699469246044600F13B
:100C700024080168880604D5E06921F0100121608C
:100C800000E00120A84201DD471B00E00027A16928
:100C90007A1902EB0900081AA0612078C00602D474
:100CA0002046FFF77FFC002608E0D4E901211AF86E
:100CB00006009047206A401C761C20624E45F4DBFB
:100CC0002078C0060AD52046FFF76CFC06E0D4E980
:100CD000012130209047206A401C2062381EA7F175
:100CE0000107F4DC07E0D4E9012118F8050090477A
:100CF000206A401C2062281EA5F10105F3DC204675
:100D0000FFF766FC2078000602D50220BDE8F087D8
:100D10000120FBE711680268006A530501D50870DD
:100D20000AE0D30501D5088006E0130603D5C217F3
:100D3000C1E9000200E008600120704701694A1C17
:100D400002610878704700B58FB0CDE9013100210C
:100D5000059105497944CDE9031011466846FFF72E
:100D6000F7FC0FB000BD0000E5FFFFFF0A6802F8C6
:100D7000010B0A607047D1E900239A4202D2531C4A
:100D80000B601070704710B5436913B1AFF300806A
:100D900001E0FFF72EFC012010BD127800F12401C4
:100DA0000A7000224A700122EDE711684FF0FF320D
:100DB000E9E700002DE9FF5F15468A460446DFF8A3
:100DC000AC80F8440027D8E900103E46CDE9001079
:100DD00010E03AF816106A4602A800F0F7FC411C31
:100DE00007D02178890603D5E269391891420DD8D8
:100DF0000744761C2078800602D5E069B84205DDFC
:100E0000AE42E6DB3AF816000028E2D1A069C01B2A
:100E1000A0612046FFF7C6FBD8E90010CDE900101D
:100E2000002017E03AF818106A4602A800F0CEFC3D
:100E3000B0F1FF3F81460BD000250DF1080B05E016
:100E4000D4E901211BF8050090476D1C4D45F7D3EF
:100E500008F10100B0428046E4DB206A3844206299
:100E60002046FFF7B5FBBDE8FF9F0000625600007B
:100E70002DE9F0418046D21D22F007020025D2E97B
:100E80000002F52915A614D0011E72F1000106DA40
:100E90000023D0EB030063EB020211A608E0D8F8B0
:100EA00000108B0701D50FA602E0490701D50EA659
:100EB00001251146002408F1240704E000F09EF803
:100EC00030323A55641C50EA0102F7D12B463246C3
:100ED00021464046BDE8F041FFF7C3BE00000000D8
:100EE0002D0000002B0000002000000030B4002185
:100EF00000F1240408E002F00705D208303542EA88
:100F00004372DB086554491C52EA0305F3D10468B7
:100F1000002310A2250707D5A40600D421B1C46977
:100F200001230DA2641EC46130BCFFF79ABE10B548
:100F3000044621461068FFF78BFE02462046BDE8B6
:100F400010400023D2E7D21D22F00701D1E900238F
:100F5000CCE70000000000003000000010B5203A8F
:100F6000C0F00B80B1E81850203AA0E81850B1E862
:100F70001850A0E81850BFF4F5AF5FEA027C24BF18
:100F8000B1E81850A0E8185044BF18C918C0BDE80F
:100F900010405FEA827C24BF51F8043B40F8043BD8
:100FA00008BF7047D20728BF31F8023B48BF11F88D
:100FB000012B28BF20F8023B48BF00F8012B7047E7
:100FC00000487047F4530020034640688C460028D0
:100FD00018BF88423CBF03464068F8D318681844DD
:100FE000884207D00CF1030020F00700001D411AD1
:100FF000521A0146081D0A60FFF7FABD30B5B0F17C
:101000000A024FEA900E71F100034EEA817EB0EBC6
:101010000E0061EB91014FEA101E4EEA017E10EBCB
:101020000E0041EB11114FEA102E4EEA016E10EB4B
:101030000E0041EB11214FEA104E4EEA014E10EB2B
:101040000E0041EB1141401841F100014FEAD00080
:1010500040EA41704FEAD10110EB80054FEA81046C
:1010600044EA907444EB01046D1944EB0404521BF0
:10107000A3414FF0000348BF0A3200D530BD401CE9
:1010800041F1000130BD70472DE9FF4F0C461E466F
:101090004FF0FF378BB0D2E90001DDF860800A9095
:1010A0008A46C1F30A5505B93D46002108464FF06E
:1010B0000000BAF1000F00F4400005DA00EB8000F8
:1010C0004FF4400101EA50004FEA9059B9F1010F85
:1010D00000DDB9460A9850EA4A000ED044F6105096
:1010E000A5F2FF3545432F14B8F1000F1ED075420D
:1010F000291E1EDDC9F100021CE0B8F1010F4FF0FE
:10110000000001D0302103E0F24305E02154401CEF
:10111000B042FBDB30460022002121540B99C1F87C
:101120000880C1E900200FB0BDE8F08FBD1B6D1C29
:10113000DEE74A4600DA694206A800F0E1FB06ABAA
:1011400093E8070003AB83E8070050460A9900F0D4
:10115000E6FC8DE80700A0F500501F3800900398CA
:10116000002D0ADD42F21F014A460844002303A96C
:101170000390684600F04FFF09E0A0F500504A4692
:101180001F38002303A90390684600F059FF8DE83B
:1011900007000004000C03D04FF0FF30410800E0CE
:1011A0001046B8F1000F03D00022009215461EE051
:1011B000751E05D4FFF722FF303262556D1EF9D53A
:1011C000B3460122084302D000227F1C04E02078AD
:1011D000302801D100227F1E002A099784D01DE00B
:1011E000112D07DAFFF70AFF303262556D1C50EA05
:1011F0000102F5D1084302D00098C8B10EE00021E9
:10120000681E05E0235C625C63542254401E491C46
:101210008142F7DBAB46A81B401E0990002004F872
:101220000B000B98099AC0F80880C0E9002B7AE7F8
:1012300011264FF0000857E72DE9F04F8846044685
:10124000D21D22F0070191B0D1E90001CDE90A01D8
:1012500002F0A3FB02460B98C00F01D02D2007E03F
:101260002068810701D52B2002E0202101EAC0007F
:10127000032A099001D0072A05DB03464146204690
:1012800000F0FEFA0BE12078800601D5E06900E06D
:101290000620B8F1650F814606D0B8F1660F18D068
:1012A000B8F1670F70D131E00020B9F1110F009053
:1012B00001DB112301E009F101030AAA01A90CA82D
:1012C000FFF7E2FEDDE90C70002609F10105834617
:1012D00047E001204B4600904FF000470AAA01A9C1
:1012E0000CA8FFF7D1FEDDE90DB00C995D46002694
:1012F00010B909F101000D18B9EB050003D4C0F1D4
:10130000FF3609F10105A5EB09002BE0B9F1010F4A
:1013100001DA4FF001090020B9F1110F00904846A1
:1013200001DD112300E003460AAA01A90CA8FFF77A
:10133000ABFEDDE90C704D460026834620780007A1
:101340000AD4AB4500DA5D4601A8012D04DD411940
:1013500011F8011C302907D04F4502DA17F1040FAC
:1013600004DA012082460FE06D1EEEE7002F02DC5A
:10137000ED1B3E4403E0781CA84200DD7D1CB81B39
:1013800000F1010A4FF000472078000703D4AA4576
:1013900001DB4FF0FF3A0021B7F1004F0DF1430898
:1013A0008DF8431024D002202B23002F01DA7F4236
:1013B0002D230A21021EA0F1010000DC5FB197FB82
:1013C000F1FC97FBF1F201FB1C7C17460CF1300C91
:1013D00008F801CDEEE7A8F10100037021880905A6
:1013E00001D5452100E06521A0F1010800F8011CAC
:1013F00009980FA9A1EB0807FF1D00B101204119B1
:1014000001EBEA70A1693844081A401EA0612078F7
:10141000C00602D42046FFF7C5F8099828B1D4E9E0
:1014200001219047206A401C20622078C00622D506
:101430002046FFF7B7F81EE0002E04DBB34502DDBF
:1014400001A8805D00E03020D4E901219047206AA6
:10145000401C2062761CAAF101005FEA000A0AD152
:1014600000F00AFAC0680168405CD4E901219047A5
:10147000206A401C2062281EA5F10105DCDC07E083
:10148000D4E9012118F8010B9047206A401C206222
:10149000381EA7F10107F3DC2046FFF799F8032077
:1014A00011B041E62DE9F04F04460D46D21D22F061
:1014B000070089B0D0E900974846394602F06DFA36
:1014C0000246F80F01D02D2307E02068810701D5DF
:1014D0002B2302E0202101EAC0038DF820300BB15C
:1014E000012000E00020032A824601D0072A04DB05
:1014F0002946204600F0C4F93FE12078800601D457
:101500000D2500E0E569C7F30A560D2D49DA0021E3
:101510004FEA175B08464FF00000002F00F4400030
:1015200007DA00EB80004FF4400100EBD07001EAD5
:1015300060008115012901DD4FF0FF3100224FEAE3
:10154000850CBCF1180F06D31346ACF118004FF010
:101550008052C24003E04FF4801323FA0CF30CF1E5
:101560000C0CBCF1200F04D3ACF1200C09FA0CF0E8
:1015700001E007FA0CF000294FF0004801DD18B92E
:101580000FE00ED140450CD319EB02095F4121B9A0
:10159000404502D19F4329EA0209BBEB175F00D007
:1015A000761C2088000502D57B48784402E07A4802
:1015B0007844193808AA302302F80A30037C0AF16B
:1015C0000101002E0AF1020A53546A4602DC4FF070
:1015D000300101E04FF031014FF001088DF80010AB
:1015E00002D0A6F2FF3603E059EA470100D06B4E65
:1015F000002D02DC2178090704D54FF002082E21C6
:101600008DF80110C44600210BE0C7F303433F01EE
:10161000C35C491C6D1E02F80830052908F1010859
:1016200001DA002DF1DC00210CE000EB1973491CFC
:101630001B786D1E082902F808304FEA091908F1D5
:10164000010801DA002DF0DC21688B0602D516E0D6
:10165000A8F10108E04505DD02EB080313F8013CA1
:10166000302BF5D0B8F1000F09DD02EB080313F8B9
:10167000013C2E2B03D1090701D4A8F10108002D4C
:1016800005DD3E2102F808106D1E08F10108407CBE
:10169000002E02F8080008F1010804DA2D20764235
:1016A00002F8080002E02B2002F808000A214FF49B
:1016B0007A70864208F101080BDB96FBF0F33033B9
:1016C00002F8083096FBF0F308F1010800FB1366FE
:1016D00001E0642E0CDB642096FBF0F3303302F85B
:1016E000083096FBF0F308F1010800FB136601E0F7
:1016F0000A2E06DB96FBF1F0303002F8080008F104
:10170000010896FBF1F001FB1060303002F8080090
:10171000A16908F1010808EB050202EB0A00081AAA
:10172000A0612078C00602D42046FEF73BFF216A64
:1017300008AE01EB0A00206204E0D4E9012116F8AA
:10174000010B9047BAF1010AF7D22078C00602D502
:101750002046FEF727FF6E4609E016F8010B3E28EB
:101760000FD0D4E901219047206A401C2062B8F1D3
:101770000108F2D22046FEF72BFF09B00320BDE896
:10178000F08F206A2844206203E0D4E90121302050
:1017900090476D1EEBD3F8E7954E000002FCFFFF6B
:1017A00010B5436913B1AFF3008001E0FFF702FB0E
:1017B000012010BD128800F1240182840022C2841D
:1017C0000122EDE711684FF0FF32E9E770B51646E8
:1017D0000C46054600F048F8036893F8010101281B
:1017E00006D0FF2C0FD8185D68B101202C7070BD99
:1017F000D3F807013246214603F207130344284673
:10180000BDE8704018474FF0FF3070BD10B500F0D4
:10181000F7F8BDE8104000F0EEB870477546FFF7E6
:10182000CFFBAE4605006946534620F007008546CB
:1018300018B020B5FEF7C8FDBDE820404FF0000607
:101840004FF000074FF000084FF0000B21F00701A8
:10185000AC46ACE8C009ACE8C009ACE8C009ACE8EB
:10186000C0098D467047000010B500F005F8001D56
:1018700010BD00BF0D4900000048704714540020FF
:101880002DE9F0411F46044603260168072A01F4AA
:10189000006004DB08B116A505E016A503E008B159
:1018A00015A500E015A521F010002060A069C01E5C
:1018B000A0610FB1401EA0612046FEF773FE4FB13C
:1018C000D4E9012138469047206A401C2062C01CA0
:1018D000206206E0206AFAE7D4E9012115F8010B3D
:1018E0009047761EF8D22046FEF772FEBDE8F081E2
:1018F0004E414E006E616E00494E4600696E6600B4
:101900002DE9F047814616468AB0354878440DC81F
:101910008DE80D0032487844801C03AC0DC884E883
:101920000D0041F69B300844372190FBF1F290FB0B
:10193000F1F5A5F1800501FB12041B3C02D56442C0
:10194000012000E00020DFF898A080460027FA443C
:10195000AAF1BE0A0EE0E0070AD03246684607EB5D
:10196000470101230AEB810100F06AFB8DE80700C3
:1019700064107F1C002CEED1194F7F44AE3F19E05C
:10198000E80715D007EB04100DF1180A90E80E00D7
:101990008AE80E00C068F04201D1981908903246DA
:1019A000012306A903A800F04BFB03AB83E8070063
:1019B0006D10641C002DE3D14FF0010332466946DF
:1019C000B8F1000F03A802D000F025FB01E000F001
:1019D00037FBC9E90001C9F808200AB0BDE8F08763
:1019E000C44B000010B50446AFF300802046BDE8AC
:1019F0001040FEF774BC002801D000F029B87047F1
:101A000010B5012805D0002103A000F027F801201F
:101A100010BD09A1F8E7000053494752544D454D08
:101A20003A204F7574206F662068656170206D657F
:101A30006D6F7279000000003A2048656170206D7A
:101A4000656D6F727920636F727275707465640072
:101A500001491820ABBEFEE72600020070B505461E
:101A60000C460A2000E06D1C00F052F835B12878D1
:101A70000028F8D102E0641C00F04AF814B1207884
:101A80000028F8D1BDE870400A2000F041B80000FD
:101A90004FF0013C50F8042B51F8043B9A4221D1FD
:101AA000A2EB0C03934313EACC1317D150F8042B89
:101AB00051F8043B9A4215D1A2EB0C03934313EA6D
:101AC000CC130BD150F8042B51F8043B9A4209D1A6
:101AD000A2EB0C03934313EACC13DBD04FF00000CE
:101AE000704700BFD01A01BAB1FA81F101F01801B4
:101AF00022FA01F0CB40C1F12001DBB2C0B2C01A22
:101B00002CFA01F3D11A914311EAC311E6D17047BF
:101B100008B569468DF800000320ABBE08BD5FEA3A
:101B2000400C08BF91F0000F4FEA8C234FEAC1220E
:101B300043EA51514FEA1C5018BF00F5F0404FEAFC
:101B4000300018BF41F000415FEA6C5C00F0298072
:101B5000BCF1FF3F08BF40F080407047130C06BF48
:101B600012044FF0100C4FF0000C130E04BF1202C1
:101B70000CF1080C130F04BF12010CF1040C930FAD
:101B800004BF92000CF1020CD30F04BF52000CF101
:101B9000010C11464FF00002A0F11F00A0EB0C0059
:101BA000704711F0004F08BF704731F000413FF41B
:101BB000D5AF0B0C06BF09044FF0100C4FF0000C12
:101BC0000B0E04BF09020CF1080C0B0F04BF090136
:101BD0000CF1040C8B0F04BF89000CF1020CCB0F2D
:101BE00004BF49000CF1010CCCF12003A0EB0C0068
:101BF00022FA03F302FA0CF241EA030100F10100B8
:101C0000704720F07F4C80EA030023F07F47ACEB65
:101C1000070303F57C5300F0004003F1FF032DE9B7
:101C200080494FEA154B09B44FEA144325EA0B4E9D
:101C300024EA03480FF2042606EB132749083E78EE
:101C40005FEA320203FB0667C7F5000707FB06F6EB
:101C50004FEA54374FEAD64606F1020607FB066CF8
:101C6000CCF1005C4FEA1C472CEA074C07FB06F45A
:101C70000CFB06F504EB15464FEA961634BF002020
:101C80004FF000404FEAD13706FB07FC4FEA1C4CEF
:101C90000CFB0BF7D21B03FB0CF761EB07010CFBF2
:101CA0000EF7B0EB074072EB17420CFB08F734BF9E
:101CB000A2EB0742B2EB074261EB17414FEA0C443B
:101CC0004FEA910706FB07FC4FEA1C4C0CFB0BF795
:101CD000B0EBC74072EB573203FB0CF734BFA2EBFB
:101CE000C742B2EBC74261EB57310CFB0EF7B0EBCA
:101CF000C70072EB57720CFB08F734BFA2EBC702A8
:101D0000B2EBC70261EB5771039F4FEA816141EA71
:101D1000921104EBCC044FEAD1374FEA826206FB02
:101D200007FC42EA90124FEA80604FEA1C4C0CFB21
:101D30000BF7D21B03FB0CF761EB07010CFB0EF753
:101D4000B0EB074072EB17420CFB08F734BFA2EB75
:101D50000742B2EB074261EB17414FEA8C554FEA5D
:101D6000910704EB9C2406FB07FC4FEA1C4C0CFB80
:101D70000BF7B0EBC74072EB573203FB0CF734BFE5
:101D8000A2EBC742B2EBC74261EB57310CFB0EF737
:101D9000B0EBC70072EB57720CFB08F734BFA2EB35
:101DA000C702B2EBC70261EB577115EB4C254FEA46
:101DB000816141EA92114FEA82624FEAD13742EAE9
:101DC000901206FB07FC44F100044FEA80604FEAE2
:101DD0001C4C0CFB0BF7D21B03FB0CF761EB070150
:101DE0000CFB0EF7B0EB074072EB17420CFB08F749
:101DF00034BFA2EB0742B2EB074261EB174115EB90
:101E00001C154FEA813141EA92414FEA823242EA9F
:101E100090424FEA80304FEA0C7644F1000448EAE1
:101E200003434EEA0B484FF0000EB2EB080C71EB87
:101E3000030724BF624639464EEB0E0E4FF0000BEF
:101E40000018524149414BEB0B0BB2EB080C71EB04
:101E500003077BF1000B24BF624639464EEB0E0EA2
:101E60004FF0000B0018524149414BEB0B0BB2EB0A
:101E7000080C71EB03077BF1000B24BF6246394667
:101E80004EEB0E0E51EA020718BF46F0010616EBA4
:101E90000E7655F1000254F1000103D5BDE8890129
:101EA000BDE80088BDE88901BDE80048B619524187
:101EB00041EB0101A3F10103704780807F7E7D7CAF
:101EC0007B7A7978777676757473727171706F6ECC
:101ED0006E6D6C6C6B6A6A69686867666665646477
:101EE000636362616160605F5F5E5E5D5D5C5C5B01
:101EF0005B5A5A5959585857575656555555545470
:101F0000535352525251515050504F4F4F4E4E4DCD
:101F10004D4D4C4C4C4B4B4B4A4A4A494949484819
:101F20004847474747464646454545444444444359
:101F300043434342424242414141002B9C4630D4FC
:101F400077002BD01CB54FEA370703B44FF01000D1
:101F50004FF01001BAF1000F06D0BCF1000FDCBF4A
:101F600040F0080040F008014FF000000FBCBDE851
:101F700010400BF1010BBBF1010F08BF5FEA17071F
:101F800022BF12F1010211F101014FF0004143F1B2
:101F9000000300F0004043EA00007047F9D35708FF
:101FA000D0E746EA064613F1400F4FEA16461FDD1A
:101FB00013F1200FDFBF16430A46002120335B4296
:101FC000BED0C3F1200746EA064602FA07F74FEAF9
:101FD000164646EA0706C3F1200722FA03F201FA81
:101FE00007F721FA03F14FF0000342EA0702A7E7DF
:101FF00046EA020646EA06464FEA164646EA010661
:10200000BCBF46EA0646360C4FF000034FF0000214
:102010004FF0000194E72DE9804C9A46934670B446
:1020200091E8380007C831EA400C48BF34EA430C55
:1020300003D5FFF7E6FDFFF780FFF0BCBDE8008C9D
:102040002DE9804C9A46934670B491E8380007C851
:1020500010F0804F08BF13F0804F03D100F005F857
:10206000FFF76BFFF0BCBDE8008C20F07F4780EAF3
:10207000030023F07F4C07EB0C03A3F57C5300F027
:102080000040A3F1FE0392F0000F00F0B38095F042
:10209000000F00F077802DE901494FEA11404FEA27
:1020A000144621EA004800FB06FC24EA064708FB28
:1020B00006F607FB08F800FB07F718EB06484CEBA1
:1020C000164C4FEA124B18EB07484FEA15464CEBFB
:1020D000174022EA0B4E0BFB06FC25EA06470EFBD7
:1020E00006F607FB0EFE0BFB07F71EEB064E4CEB4E
:1020F000164C4FF000061EEB074E4CEB174B18EB3F
:102100000B0840F1000018EB0E0B58EB000840F1F3
:1021100000008F1A4FF000013CBFC943661B14BF7B
:10212000B5EB040C00213CBFC943F61B4FEA174432
:102130004EEA8E0E27EA04454FEA1C4704FB07626D
:102140002CEA074C05FB07F70CFB05F604FB0CFC1F
:1021500016EB074642EB174216EB0C4642EB1C42CD
:102160001BEB060658EB0202414146EA9E0601D5EA
:10217000BDE80189B619524141EB0101A3F1010308
:10218000BDE801894FEA14454FEA114724EA0546A4
:1021900021EA074C05FB07F406FB07F70CFB06F1E9
:1021A00005FB0CFC11EB074144EB17444FEA1247C7
:1021B00011EB0C4144EB1C4422EA074C05FB07F2EF
:1021C00006FB07F70CFB06F605FB0CFC16EB0746B7
:1021D00042EB174216EB0C4642EB1C456A1854F1D1
:1021E000000148BF7047B619524141EB0101A3F10C
:1021F0000103704795F0000F37D04FEA11424FEAC4
:10220000144721EA024624EA074C02FB07F106FBC9
:1022100007F70CFB06F402FB0CFC14EB074441EB44
:1022200017414FEA154714EB0C4441EB1C4125EADA
:10223000074C02FB07F506FB07F70CFB06F602FB53
:102240000CFC16EB074645EB174516EB0C4645EB29
:102250001C42121951F1000148BF7047B619524192
:1022600041EB0101A3F1010370474FEA14454FEA26
:10227000114724EA054621EA074C05FB07F106FB56
:1022800007F70CFB06F24FF0000605FB0CFC12EB07
:10229000074241EB174112EB0C4251EB1C4148BF86
:1022A0007047921841EB0101A3F101037047FEE76B
:1022B000704772B6FEE72DE9F0410446876D00F0E5
:1022C00045F9064694F835000025022806D08020FE
:1022D000606584F834500120BDE8F0812068016811
:1022E00021F0160101602068416921F080014161FF
:1022F000206C08B9A06C20B12068016821F00801A9
:1023000001602068016821F0010101600CE000F02B
:102310001DF9801B052807D920206065032084F85B
:10232000350084F83450D7E720680068C007EED144
:1023300094F85C103F208840B860012084F8350094
:1023400084F834500020C7E790F83510022903D0F4
:102350008021416501207047052180F83510006813
:10236000016821F001010160002070472DE9F84F5C
:10237000DFF8B8A10022012403254FF00F090AF16C
:10238000040BAAF1040E00BF0B6804FA02F63340F6
:10239000B34273D10F7907F00307012F01D0022F49
:1023A00016D187684FEA420805FA08FC27EA0C07AD
:1023B000D1F80CC00CFA08FC4CEA070CC0F808C0B5
:1023C0004768B7430E79C6F3001696403E43466011
:1023D0000E79F643B6070DD0C768560005FA06FC1D
:1023E00027EA0C07D1F808C00CFA06FC4CEA070CE7
:1023F000C0F80CC00E7906F00306022E10D1D608E4
:1024000000EB8608D8F8206057074FEAD76C09FA26
:102410000CF7BE430F6907FA0CF73743C8F8207072
:1024200006684FEA420C05FA0CF7BE430F7907F035
:10243000030707FA0CF7374307604E6816F4403F6E
:102440006DD03B4E376847F480473760366822F0DE
:10245000030706F480460096364E07EB060CDCF8C0
:10246000086897073F0F09FA07F826EA0806DFF819
:10247000C880404503D14FF000081EE04FE0DFF870
:10248000BC80404502D14FF0010816E0DFF8B08073
:10249000404502D14FF002080FE0DFF8A880404528
:1024A00002D14FF0030808E0DFF89C80404502D1DC
:1024B0004FF0040801E04FF0070808FA07F848EA6F
:1024C0000608CCF80888DAF800605746D1F804C04E
:1024D0009E435FEACC2C00D51E433E60DBF80060D3
:1024E0005F46D1F804C09E435FEA8C2C00D51E43A2
:1024F0003E60DEF800607746D1F804C09E435FEA94
:102500008C3C00D51E433E60084F083F3E68D1F822
:1025100004C09E435FEACC3C00D51E433E60521C83
:10252000102AFFF431AFBDE8F88F0000083C0140ED
:1025300044380240003001400000024000040240E4
:1025400000080240000C0240001002400148806870
:10255000704700000C000020024881680278114496
:10256000816070470C0000200B4810B5016841F4F1
:1025700000710160016841F480610160016841F40B
:1025800080710160032000F09FF80F2000F006F832
:1025900000F050F8002010BD003C024030B5054668
:1025A000204887B00024016841F001010160006803
:1025B00006A900F00100009001A800F031F904988C
:1025C000B0B100F04DF9400017494FF08042B0FB28
:1025D000F1F11648491E026040F2E732C0E90324D7
:1025E000C0E90114846100F045FB040003D015E04C
:1025F00000F036F9E8E70D4800F06AFB04000DD161
:102600001C2000F033F8102D07D2002229461C2090
:1026100000F03AF80648056000E0012407B02046C3
:1026200030BD00004038024040420F002801002029
:10263000100000200C4882B0016841F48041016024
:10264000006800F4804000900748001F016841F0D6
:10265000805101600068002200F0805000900F213E
:10266000901E02B000F010B844380240002809DB88
:1026700000F01F02012191404009800000F1E0209C
:10268000C0F8001170470000F0B40E4B1B680C46F8
:10269000C3F30223C3F10705042D00D90425191D36
:1026A000072901D2002300E0DB1E012606FA05F10E
:1026B000491E214099409E40761E16403143F0BC91
:1026C00001F083B90CED00E0064900F0070208684C
:1026D0004FF6FF03184040EA0220034A1043086007
:1026E000704700000CED00E00000FA052DE9F0470E
:1026F0000E46050065D0DFF81481D8F80000F7B267
:1027000000F00700B04207D288F80070D8F8000047
:1027100000F00700B04254D128683D4C810712D523
:10272000400703D5206840F4E05020602878000777
:1027300003D5206840F4604020602068A96820F03C
:10274000F000084320602878C0072DD03049686821
:102750000839012812D0022813D0032811D00968A3
:10276000890700292DDA216821F003010143216046
:10277000FFF7ECFE814641F2883A0EE009688903D2
:10278000EFE709688901ECE7FFF7E0FEA0EB09013C
:10279000514502D90320BDE8F0872068696800F040
:1027A0000C00B0EB810FEFD1D8F80010404601F0DB
:1027B0000701B14207D90770006800F00700B04276
:1027C00001D00120E7E72878400705D52068E968AF
:1027D00020F4E050084320602878000706D52068E0
:1027E000296920F4604040EAC100206000F058F8F8
:1027F0002168084AC1F30311515CC84006490860CA
:1028000006480068FFF7CAFE0020C4E7003C02400B
:10281000083802403D620008180000201000002027
:102820000F2202600C4A136803F00303436013682D
:1028300003F0F0038360136803F4E053C36012688D
:102840004FF4E05303EAD20202610448006800F04A
:10285000070008607047000008380240003C024052
:102860000448054900680968044AC1F38221515CA3
:10287000C840704718000020083802404D62000828
:102880000448054900680968044AC1F34231515CB3
:10289000C840704718000020083802404D62000808
:1028A000154810B5006810F00C02144813D01449F4
:1028B000042A0FD0082A0ED10F4C241F2268236847
:1028C00002F03F025B0207D52068C0F38810A0FB2E
:1028D000010106E0084610BD2168C1F38811A1FB83
:1028E00000010023FDF7B1FD2168C1F30141491C3E
:1028F0004900B0FBF1F010BD083802400024F4009C
:1029000040787D012DE9F84F04006ED02078DFF883
:102910004C93C007A9F104054AD009F104000168ED
:10292000C1F38101012908D00068C0F381000228A9
:102930000AD1D9F80000400206D52868800337D5AF
:1029400060680028E1D033E06068B0F5803F10D0C7
:10295000B0F5A02F286810D020F4803028602868B7
:1029600020F4802028606068A8B1FFF7EFFD0646DC
:102970000DE0286840F48030F4E740F480202860BF
:10298000F7E700BFFFF7E2FD801B642873D82868D3
:102990008003F7D50CE0FFF7D9FD064605E000BF40
:1029A000FFF7D4FD801B6428F0D828688003F7D493
:1029B0002078DFF8AC8280074FF0000A3ED5A748A8
:1029C000001D016811F00C0F08D00068C0F38100F1
:1029D00002280BD1D9F80000400207D428688007EC
:1029E00016D5E068012800D112E033E1E068B8B103
:1029F0000120C8F80000FFF7A9FD064605E000BF6A
:102A0000FFF7A4FD801B0228C0D828688007F7D5EF
:102A10002868216920F0F80040EAC10028600DE034
:102A2000C8F800A0FFF792FD064604E0FFF78EFD10
:102A3000801B02281FD828688007F7D42078000759
:102A400022D5864F87486169703771B101210160D5
:102A5000FFF77CFD064604E0FFF778FD801B0228A7
:102A600009D838688007F7D50EE0C0F800A0FFF756
:102A70006DFD064605E082E0FFF768FD801B022839
:102A80007DD838688007F7D42078400768D5DFF80C
:102A9000CCB100270BF13C0BDBF80000C0000BD4DD
:102AA000DBF8001041F08051CBF80010DBF800009B
:102AB000012700F0805000906B4E3068C00510D4A4
:102AC000306840F480703060FFF740FD009005E012
:102AD000FFF73CFD0099401A022850D83068C00525
:102AE000F6D55E4EA0686C3601280FD005283068F8
:102AF00010D020F001003060306820F00400306019
:102B0000A068B8B1FFF722FD00900FE0306840F0F8
:102B10000100F4E740F004003060F7E7FFF716FD2E
:102B20000099411A41F28830814266D830688007A6
:102B3000F4D50EE0FFF70AFD009007E0FFF706FD71
:102B40000099411A41F28830814256D83068800796
:102B5000F4D42FB1DBF8001021F08051CBF8001035
:102B6000A069C8B33D49091D0968C1F38101022963
:102B70004AD00228504607D0C8F8600000E03CE088
:102B8000FFF7E4FC04463BE04746C8F86000FFF767
:102B9000DDFC064605E000BFFFF7D8FC801B0228DD
:102BA0002BD828688001F7D4D4E907010843A16A2B
:102BB0002E4A490802EB0141626A41EA8211084348
:102BC00094F82C1040EA0161C9F800100120386621
:102BD000FFF7BCFC044606E03EE000BFFFF7B6FC92
:102BE000001B022809D828688001F7D534E000BF0F
:102BF000FFF7ACFC001B022802D90320BDE8F88FC8
:102C000028688001F4D427E00128F7D0D9F8000023
:102C1000E26900F4800191421CD1226A00F03F0178
:102C2000914217D147F6C071626A0140B1EB821F31
:102C300010D1A26A4FF0FF3300F4403103EB52028F
:102C4000B1EB024F06D194F82C1000F07060B0EB9D
:102C5000016F01D00120D1E70020CFE70438024006
:102C600000004742800E4742007000400000FFFF16
:102C70007047704710B5040003D094F83D0010B1C0
:102C800007E0012010BD002084F83C00204600F041
:102C90001EF8022084F83D00211D206800F066FC2B
:102CA000012084F8460084F83E0084F83F0084F850
:102CB000400084F8410084F8420084F8430084F81E
:102CC000440084F8450084F83D00002010BD7047A2
:102CD00090F83D10012901D001207047022180F8B1
:102CE0003D100168CA6842F00102CA6000680E49DE
:102CF00088420ED0B0F1804F0BD00C49884208D0EA
:102D00000B49884205D00B49884202D00A498842C3
:102D100004D1816801F00701062903D0016841F060
:102D200001010160002070470000014000040040E4
:102D300000080040000C004000400140704770B5A2
:102D40000446006801694FF00005C943890715D49E
:102D5000C168C943890711D4E91E016101202077A8
:102D6000206880698007204602D0FFF7E7FF04E073
:102D700000F098F8204600F096F825772068016961
:102D8000C943490717D4C168C943490713D46FF031
:102D900004010161022020772068806910F4407FDF
:102DA000204602D0FFF7CAFF04E000F07BF820467F
:102DB00000F079F8257720680169C943090716D41E
:102DC000C168C943090712D46FF0080101610420EA
:102DD00020772068C0698007204602D0FFF7AEFF49
:102DE00004E000F05FF8204600F05DF825772068E9
:102DF0000169C943C90617D4C168C943C90613D4B8
:102E00006FF010010161082020772068C06910F47C
:102E1000407F204602D0FFF791FF04E000F042F827
:102E2000204600F040F8257720680169C943C907AA
:102E300008D1C168C943C90704D1891E0161204670
:102E400000F032F820680169C943090609D4C16855
:102E5000C943090605D46FF0800101612046FFF7E0
:102E600007FF20680169C943490609D4C168C943FD
:102E7000490605D46FF040010161204600F01BF8BF
:102E800020680169C94389060BD4C168C943890612
:102E900007D46FF0200101612046BDE87040FFF7C4
:102EA000E8BE70BD704770470068B0F1804F01D137
:102EB000FFF752BB7047704770477047F8B501681D
:102EC00004460868CA684B6910F00F0F4FF0000500
:102ED00059D003F0010602F49077374365D0C1075B
:102EE00005D0D10503D5216C41F0010121644107D2
:102EF00005D5D90703D0216C41F002012164810777
:102F000005D5D90703D0216C41F0040121640107E4
:102F100007D502F02001314303D0216C41F00801B4
:102F20002164216C00293AD0800604D5900602D590
:102F3000204600F096FB20684069216CC0F38010A9
:102F4000090700D460B3204600F064FB20684069A4
:102F5000400621D52068143050E8001F21F04001C0
:102F600040E80012002AF5D1A06BA8B16C490165B8
:102F7000A06BFFF7E9F9002811D0A06B016D01B03B
:102F8000BDE8F040084783060FD593060DD52046CF
:102F9000BDE8F84000F065BB2046FFF78EFFF8BDA6
:102FA0002046FFF78AFF2564F8BD266B2023012EFB
:102FB00079D1C60677D5D60675D5086848680090D9
:102FC0004869400640D5A16B086840680004000CC1
:102FD000EAD0A28D8242E7D9E085C869B0F5807F4A
:102FE0002DD020680C3050E8001F21F4807140E89B
:102FF0000012002AF5D12068143050E8001F21F09B
:10300000010140E80012002AF5D12068143050E890
:10301000001F21F0400140E80012002AF5D184F899
:103020003E30256320680C3050E8001F21F010016D
:1030300040E80012002AF5D1A06BFFF73CF9A08D03
:10304000E18D401A81B229E0A08DE18D401A81B254
:10305000E08D0028A8D00029A6D020680C3050E8C8
:10306000002F22F4907240E80026002EF5D120684F
:10307000143050E8002F22F0010240E80026002E14
:10308000F5D184F83E30256320680C3050E8002FDD
:1030900022F0100240E80023002BF5D12046FFF774
:1030A0000BFFF8BDFFE705062BD5150629D594F8CB
:1030B0003D002128F5D1A068B0F5805F01D12069DD
:1030C000B0B1206A411C2162216800784860E08C20
:1030D000401E0004000CE084E3D12068C16821F0A8
:1030E0008001C1602068C16841F04001C160D8E73B
:1030F000206A0088C0F308004860206A801C2062B3
:10310000E5E74006CDD55006CBD5CA68204622F06B
:103110004002CA6084F83D3000F0F2F8C1E70000D8
:103120000536000870B5040004D094F83D00002571
:1031300010B106E0012070BD84F83C50204600F03C
:1031400023F8242084F83D002068C16821F4005150
:10315000C160204600F0E6FA2068016921F4904140
:1031600001612068416921F02A0141612068C1683C
:1031700041F40051C1602564202084F83D0084F8AA
:103180003E00002070BD000010B586B0044614213A
:103190006846FDF7B0FC18492068884229D11748D5
:1031A0000021026842F010020260006800F0100086
:1031B000059012481438026842F00102026000686B
:1031C00000F0010005904FF4C06000900220CDE9AE
:1031D0000101032003900720049069460848FFF787
:1031E000C5F8002205212520FFF74EFA2520FFF71C
:1031F0003DFA06B010BD0000001001404438024006
:103200000000024090F83E30202B0ED159B152B14F
:1032100090F83C30012B08D0012380F83C3000238B
:10322000036300F005BB01207047022070470000D7
:103230003EB514A1AB20CDE900011B4B1BA223A17D
:10324000042000F02DFD234C2178606801F018F96E
:103250002148002302901A4602A9A06802F036FC19
:10326000012809D01DA1B320CDE900010E4B0FA20A
:1032700016A1012000F014FD012216491F48FFF796
:10328000C1FF3EBD48414C5F554152545F527843A7
:10329000706C7443616C6C6261636B206973207243
:1032A000756E6E696E670000D66300082E2E5C4254
:1032B00053505C55534152545C6273705F75617238
:1032C000745F6472697665722E6300004E4F5F54BE
:1032D00041470000D8000020A4A3A2A148414C5FB0
:1032E000554152545F527843706C7443616C6C6208
:1032F00061636B206661696C65640000E400002016
:103300007047FEE710B50B4A00210B4801F094F915
:103310000A4C084A002120602432094801F08CF947
:10332000044A606048320021064801F085F9A06037
:1033300010BD0000C06100084534000800000020F6
:10334000B1510008614F0008094808B5016841F013
:1033500080010160016801F080010091016841F085
:1033600001010160006800F00100009008BD00004C
:10337000303802400C4810B50A4901604FF4E13181
:103380004160002181600C22C160C0E904128161AA
:10339000C161FFF7C7FE002803D0BDE81040FEF76B
:1033A00088BF10BD00100140E4000020FEE7FEE7EA
:1033B0002DE9F04107460B4815460E46007808B93E
:1033C00000F05CFAEFF31184202080F311882A4684
:1033D0003146384600F008F8E1B281F31188BDE8C3
:1033E000F0810000444A002070B50E46144900EBFD
:1033F000400001EBC0051446E86A183520B10128E9
:103400000FD0022805D113E0284600F06DFAA04243
:1034100001D2002411E022463146284600F09CFAF1
:103420000BE0284600F060FAA042F4D20446F2E72E
:103430003146284600F063FA0446204670BD00007D
:10344000444A00201CB507A19020CDE900010C4B97
:103450000CA212A1032000F023FC012001F0B1F81E
:10346000FBE70000537461727444656661756C74A7
:103470005461736B2069732072756E6E696E67009C
:103480002C6200082E2E2F436F72652F5372632F0C
:103490006672656572746F732E6300004E4F5F54E1
:1034A0004147000010B54FF0E020006902F09CFC9D
:1034B000012803D0BDE8104002F0AAB910BD0000F9
:1034C00030B593B030216846FDF715FB14210CA8E8
:1034D000FDF711FB1C480024016841F08051016098
:1034E000006800F0805011901848016841F4404194
:1034F00001600068022500F4404011900120039013
:1035000010200490009506950820CDE9074064201E
:10351000CDE9090504200B906846FFF7F3F908B1DF
:1035200072B6FEE70F20CDE90C054FF48050CDE9CF
:103530000E4003210CA81094FFF7D8F8002801D002
:1035400072B6FEE713B030BD403802400070004054
:103550000248016841F470010160704788ED00E0A5
:103560000148FFF7ECBB000028010020F0B502681D
:103570001D4B1E4C9F031E4D1E4E984207D0B84255
:1035800005D0A04203D0A84201D0B04204D122F01D
:10359000700C4A6842EA0C02984210D0B8420ED031
:1035A000A0420CD0A8420AD0B04208D0124CA0428F
:1035B00005D0124CA04202D0114CA04203D122F4FB
:1035C0004074CA6822434C6922F0800222430260A0
:1035D0008A68C2620A688262984201D109690163FD
:1035E00001214161F0BD00000000014000040040E5
:1035F00000080040000C0040004001400044014031
:103600000048014010B5806B0021C185C184FFF7DF
:1036100054FC10BD01680C3151E8002F22F4907267
:1036200041E80023002BF5D10168143151E8002F47
:1036300022F0010241E80023002BF5D1016B0129A2
:1036400009D101680C3151E8002F22F0100241E845
:103650000023002BF5D1202180F83E1000210163CA
:10366000704708B590F83E10222901D0022008BD0D
:1036700082684FF480539A4201D1016921B1816A75
:103680009A421BD04AB10AE00268816A5268C2F3CA
:1036900008020A80816A891C08E0026972B1026826
:1036A000526802F07F020A70816A491C8162C18DF2
:1036B000491E0904090CC18503D019E0026852684B
:1036C000F1E70168CA6822F02002CA600168CA688E
:1036D00022F48072CA6001684A6922F001024A61DC
:1036E000202180F83E10016B012903D0FFF7A0FDD7
:1036F000002008BD0021016301680C3151E8002F52
:1037000022F0100241E80023002BF5D101680A687D
:10371000D20602D50A6849680091818DFFF7CCFB7B
:10372000E6E7000070B5044600680169E26821F42C
:103730004051114301612169A068E2690843616950
:10374000114308432168CA6849F20C639A43024353
:10375000CA6020684169A26921F440711143416146
:1037600031492068884202D03049884202D1FFF7AF
:1037700087F801E0FFF774F8E26900231921642556
:103780003226B2F5004F626828D0A0FB0101930FEA
:103790009200FCF75AFE0146B0FBF5F06FF01802FC
:1037A000504301EB800006EB0010B0FBF5F000F099
:1037B000F002B1FBF5F002EB0012B1FBF5F06FF097
:1037C0001803584301EB800006EB0010B0FBF5F046
:1037D00000F00F0021681044886070BDA0FB01015B
:1037E00092185B41FCF731FE0146B0FBF5F0020197
:1037F000B1FBF5F06FF01803584301EB800006EBC6
:10380000C000B0FBF5F000F0F80002EB4002B1FBA5
:10381000F5F0584301EB800006EBC000B0FBF5F07B
:1038200000F00700D6E7000000100140001401403E
:1038300081628285C28500210164222280F83E20B7
:1038400080F83C10016921B10168CA6842F48072B5
:10385000CA6001684A6942F001024A610068C168B1
:1038600041F02001C1600020704700000148FFF7CF
:1038700025BB0000E4000020FEE7000010B5134C5B
:1038800003202061606112A0A06104F1A800E06142
:103890004FF4806020620020A0620DA22266022107
:1038A000E162606204F59562626610222067C4E9F5
:1038B0001A20616709A1E01DFDF720F808A1204644
:1038C000FDF71CF82020A07110BD0000444A002024
:1038D0005465726D696E616C0000000052545400B2
:1038E00053454747455200000269C1688A4203D8E0
:1038F0008068401A104400E0501A401E70472DE9BD
:10390000F047C4681746894606464FF000083069FC
:10391000A04201D9051B02E0B168201A0D1AB06857
:103920006D1E001BA84200D80546BD4200D33D468F
:1039300070682A4620444946FDF76EF8B0687F1B40
:103940002C44A844A944A04200D10024F460002FD4
:10395000DDD14046BDE8F0872DE9F04104468846B8
:10396000D4E90207C51BE168606816460844B54201
:1039700006D94146FDF750F8B819E060BDE8F0817E
:103980002A464146FDF748F8761B08EB050132460A
:103990006068FDF741F8E660F0E703B40198410084
:1039A000009850EAC12018BF04204A0D18BF40F00B
:1039B000010040F2FF72B2EB515F08BF40F002001D
:1039C000012808BF052002B070470907090E00282A
:1039D00004DB00F1E02080F80014704700F00F00D5
:1039E00000F1E02080F8141D704730380A2801D219
:1039F00001207047002070471CB580B130F8642F5B
:103A00006421521CB2FBF1F301FB13224088B0FB8E
:103A1000F1F301FB130082420DD101201CBD07A16F
:103A20003220CDE900010E4B0EA21DA1012000F0B5
:103A300037F9FF201CBD00201CBD000062756666C2
:103A400065725F69735F66756C6C20697320705F67
:103A5000627566666572206973204E554C4C000095
:103A6000776200082E2E5C4D6964646C6577617224
:103A700065735C4D49445F63697263756C61725F25
:103A80006275666665725C6D69645F6369726375B1
:103A90006C61725F6275666665722E63000000007D
:103AA0004E4F5F54414700001CB56820FCF79EFC58
:103AB000040004D06821FCF7FCFF20461CBD06A1D1
:103AC0000F20CDE900010F4B0FA21EA1012000F035
:103AD000E7F800201CBD0000637265617465456DE8
:103AE00070747942756666657220697320705F62D2
:103AF0007566666572206D616C6C6F6320666169C6
:103B00006C656400556200082E2E5C4D6964646C1F
:103B10006577617265735C4D49445F636972637573
:103B20006C61725F6275666665725C6D69645F6325
:103B3000697263756C61725F6275666665722E6329
:103B4000000000004E4F5F5441470000F0B585B0C3
:103B5000070007D11E4840F2E112036893B11D49E6
:103B60001DA09847214D0024052695F8F000C0B10E
:103B700000F062FA04EB4410411991F85100012859
:103B800012D017E01348CDE90302009212A118A346
:103B9000CDE9013103461FA225A1002000F080F8E5
:103BA000FEE705B03046F0BD1E2238463231FCF744
:103BB000E8FE30B1641CE4B2052CDBD300F062FAFD
:103BC000EFE704EB4410284490F83160F6E700007A
:103BD0009C0000203E63000874616720213D20287E
:103BE00028766F6964202A2930290000FC520020C1
:103BF00028257329206861732061737365727420AE
:103C00006661696C65642061742025733A256C6473
:103C10002E0000002E2E5C656173796C6F676765FE
:103C2000725C7372635C656C6F672E6300000000EA
:103C3000656C6F67000000002DE9F041174D002012
:103C400095F8F010012927D000F02FFA060023D1B3
:103C5000012000F001FA002785F8F37085F8F47070
:103C6000012085F8F500052000F028FA0024B84668
:103C700004EB4410471907F132001F21FCF719FF2C
:103C8000641C87F83180E4B287F85180052CEFD3AB
:103C9000012085F8F0003046BDE8F081FC5200209C
:103CA0000FB42DE9F04F06468BB08B460846FCF763
:103CB00049FE00240A940746A146099405940694F7
:103CC00007940894052E08D9B34840F23F220368B0
:103CD000002B7DD0B149B2A09847B84D95F8F100BE
:103CE000002876D02878B04273D35846FFF72EFFCD
:103CF000B0426ED3691C5846FCF7EEFD002868D030
:103D00000DF1680A00F098F9A84695F8F500A5F5B8
:103D1000806570B12946AAA2204600F0C7FA044681
:103D20009D4829191C3050F82620204600F0BEFA84
:103D300004440121304600F031FB40B19648291976
:103D4000001D50F82620204600F0B0FA044402215D
:103D5000304600F023FBC8B129195A46204600F02E
:103D6000A5FA04440F2F0BD8C7F10F01202205A894
:103D7000FCF797FE291905AA204600F097FA04449B
:103D8000291990A2204600F091FA04441C213046E3
:103D900000F004FB00284BD029198BA2204600F02C
:103DA00085FA04440421304600F0F8FAA8B100F086
:103DB0007BF902462919204600F078FA04441821BC
:103DC000304600F0EBFA40B129197EA2204601E00E
:103DD00035E0DBE000F06AFA04440821304600F0E8
:103DE000DDFA90B100F05EF902462919204600F094
:103DF0005DFA04441021304600F0D0FA28B12919A8
:103E000070A2204600F052FA04441021304600F01F
:103E1000C5FA38B100F047F902462919204600F0EA
:103E200045FA0444291969A2204600F03FFA0444E7
:103E300020213046169A00F011FBE0B90EE05748F9
:103E4000CDE90302009256A161A3CDE901310346F9
:103E500068A26FA10020FFF723FFFEE74021304654
:103E6000179A00F0FBFA30B980213046189A00F01A
:103E7000FEFA002856D0291967A2204600F016FA4B
:103E8000044420213046169A00F0E8FAD0B12919EE
:103E90002046169A00F00AFA044440213046179A48
:103EA00000F0DCFA10B129195CA207E0802130464D
:103EB000189A00F0DCFA28B1291942A2204600F035
:103EC000F5F9044480213046189A00F0D0FAB8B1D0
:103ED00053A2052109A8189BFCF748FB291909AA38
:103EE000204600F0E3F9044440213046179A00F0E0
:103EF000B5FA28B1291933A2204600F0D7F90444B5
:103F000040213046179A00F0A9FA28B12919204615
:103F1000179A00F0CBF90444291942A2204600F078
:103F2000C5F90444C4F5806128195346199AFCF771
:103F300003FB04444FF48062944204D8002802DB5F
:103F4000601D904201D940F2FB3498F820004646AB
:103F500040B11A4905F804902031A1F58460FCF7BE
:103F6000BBFC88B196F8F50028B129192EA220468D
:103F700000F09CF9044429192DA2204600F096F97E
:103F800001192C4800F093F800F07CF80BB0BDE864
:103F9000F00F5DF814FB00009C0000205663000841
:103FA0006C6576656C203C3D20454C4F475F4C5618
:103FB0004C5F564552424F5345000000FC520020D2
:103FC0001B5B0000200000005B0000005D20000083
:103FD00028257329206861732061737365727420CA
:103FE0006661696C65642061742025733A256C6490
:103FF0002E0000002E2E5C656173796C6F6767651B
:10400000725C7372635C656C6F672E630000000006
:10401000656C6F6700000000280000003A00000097
:10402000256C6400290000001B5B306D000000005F
:104030000A000000FC4E002070B5064C012594F8E3
:10404000F20020B100F038F884F8F45070BD84F824
:10405000F35070BDFC5200200949002881F8F2009D
:104060000DD0074891F8F41090F8F30019B100282A
:1040700005D100F022B8002801D000F01DB870472B
:10408000FC52002070B5064C002594F8F20020B1D7
:1040900000F013F884F8F45070BD84F8F35070BD4C
:1040A000FC520020704770477047002070470A4656
:1040B00001460020FFF77CB97047704710B586B005
:1040C0000446052807D90D4840F25B12036833B156
:1040D0000B490CA098471248047006B010BD084860
:1040E000CDE90302009207A10EA3CDE901310346F9
:1040F00015A21CA10020FFF7D3FDFEE79C000020C5
:10410000126300086C6576656C203C3D20454C4F81
:10411000475F4C564C5F564552424F534500000096
:10412000FC52002028257329206861732061737375
:10413000657274206661696C656420617420257302
:104140003A256C642E0000002E2E5C656173796C3C
:104150006F676765725C7372635C656C6F672E6313
:1041600000000000656C6F670000000030B585B08E
:104170000D460446052807D90E4840F2411203684F
:104180004BB10D490DA09847134800EB8400C0F8CF
:10419000D85005B030BD0848CDE90302009207A110
:1041A0000EA3CDE90131034615A21CA10020FFF7A3
:1041B00077FDFEE79C000020F56200086C657665DF
:1041C0006C203C3D20454C4F475F4C564C5F56455C
:1041D00052424F5345000000FC520020282573290D
:1041E0002068617320617373657274206661696C05
:1041F00065642061742025733A256C642E000000EC
:104200002E2E5C656173796C6F676765725C737283
:10421000635C656C6F672E6300000000656C6F6700
:10422000000000000EB50A4890F8F01000290DD0EB
:10423000012180F8F11007A208A1F7208DE80700FE
:10424000104B11A217A10320FFF72AFD0EBD00009D
:10425000FC520020322E322E39390000456173792C
:104260004C6F676765722056257320697320696EED
:10427000697469616C697A652073756363657373CA
:104280002E000000AC6200082E2E5C656173796C14
:104290006F676765725C7372635C656C6F672E63D2
:1042A00000000000656C6F67000000002DE9F0431E
:1042B000DFF88C90DFF88C8085B00D000646144640
:1042C000174606D1D8F800302BB12C2249461EA043
:1042D00098477CB115E01CA202922C20CDE90390F6
:1042E0001AA3CDE90003164B21A229A10020FFF754
:1042F000D7FCFEE7D8F800307BB12D22104926A06C
:1043000098474FF480622078B0B13146761C9142D4
:1043100012D205F8010B641CF5E71FA202922D20B2
:10432000CDE9039009A3CDE90003054B10A218A124
:104330000020FFF7B5FCFEE705B0E01BBDE8F08309
:104340008E6300089C000020647374002825732984
:104350002068617320617373657274206661696C93
:1043600065642061742025733A256C642E0000007A
:104370002E2E5C656173796C6F676765725C737212
:10438000635C656C6F675F7574696C732E630000A6
:10439000656C6F67000000007372630030B585B014
:1043A0000D460446052807D910484FF438720368B3
:1043B00063B10F490FA09847154800EB8400D0F86F
:1043C000D800284000D0012005B030BD0848CDE914
:1043D0000302009207A10FA3CDE90131034616A203
:1043E0001CA10020FFF75CFCFEE700009C00002001
:1043F000626300086C6576656C203C3D20454C4F3F
:10440000475F4C564C5F564552424F5345000000A3
:10441000FC52002028257329206861732061737382
:10442000657274206661696C65642061742025730F
:104430003A256C642E0000002E2E5C656173796C49
:104440006F676765725C7372635C656C6F672E6320
:1044500000000000656C6F670000000010B522B11D
:10446000FFF79CFF08B1012010BD002010BD10B562
:1044700022B1FFF793FF08B1012010BD002010BD4D
:104480007CB50D46040015D0FFF7B6FA01281DD003
:10449000B4F866106420B1FBF0F200FB1211655411
:1044A00034F8661F491CB1FBF0F200FB12102080AB
:1044B00000207CBD0BA15720CDE90001114B12A2B9
:1044C00020A10120FFF7ECFBFF207CBD1FA15C2099
:1044D000CDE900010B4B0CA21AA10120FFF7E0FB74
:1044E000FE207CBD696E736572745F6461746120C7
:1044F000697320705F627566666572206973204E0D
:10450000554C4C00976200082E2E5C4D6964646C1B
:104510006577617265735C4D49445F636972637569
:104520006C61725F6275666665725C6D69645F631B
:10453000697263756C61725F6275666665722E631F
:10454000000000004E4F5F5441470000696E7365E4
:1045500072745F6461746120697320627566666558
:10456000722069732066756C6C000000FDF7FCFF1B
:10457000FEF7A6FFFEF7E8FEFEF7FCFEFFF75CFB8A
:10458000FF210020FFF7F2FD07210120FFF7EEFDDC
:1045900007210220FFF7EAFD07210320FFF7E6FDD0
:1045A000A7210420FFF7E2FDA7210520FFF7DEFD8C
:1045B000FFF738FE00F012F8FEF7A4FE00F020F836
:1045C000FEE710B5EFF3058111B16FF0050403E0CC
:1045D000002408B100F0BCFF204610BDEFF30580B9
:1045E00010B16FF0050070470448016811B14FF039
:1045F000FF30704701210160002070476C000020EF
:1046000010B5EFF3058010B16FF0050010BD08483C
:104610000168012902D04FF0FF3010BD054A00218A
:1046200082F8141D0221016000F0FAFF002010BD85
:104630006C0000200BE000E02DE9FF414FEA010390
:104640004FF00005EFF30581039549BB40B3802788
:10465000182100244AB3166806B1344696691EB183
:104660003146761E382E02D21679F60703D0002086
:1046700004B0BDE8F081566906B1B708D2F808C0A9
:10468000BCF1000F0DD0D5685C2D18D312693AB17A
:1046900036B18DE806103A46214601F07AFB0390C8
:1046A0000DE0D6685EB912694AB903AACDE90012D5
:1046B000BAB2214601F040FB012800D003950398CF
:1046C000D6E700002DE9F041134C0F460546E66899
:1046D0002068001D00F008FE681C07D137B1216872
:1046E000BDE8F0410D48091D00F04EBE206835447C
:1046F000B5424560216805D2A06BBDE8F041091DB7
:1047000000F02ABE606B091D00F026FEA06A8542FB
:1047100000D2A562BDE8F0811C00002060060020E8
:104720002DE9F041054600F03BFE2D4CA068401CF1
:10473000A06020682B4F10B1606930B32BE025607A
:10474000A068012827D1002606EB860007EB800031
:1047500000F0F4FD761C382EF6D3234800F0EEFD71
:104760002148143000F0EAFD1F48283000F0E6FD33
:104770001D483C3000F0E2FD1B48503000F0DEFDEB
:10478000194860631430A06305E02068E96AC06AD4
:10479000884200D82560606A401C60626864E86AEC
:1047A0002169884200D9206100EB800007EB80007E
:1047B000291D00F0E9FD00F013FE606900280CD00F
:1047C0002068E96AC06A884207D208494FF08050E1
:1047D0000860BFF34F8FBFF36F8FBDE8F08100001B
:1047E0001C000020B00100201006002004ED00E0B5
:1047F00038B500F0D5FD104C2068C8B90F4800F05E
:104800009DFD0E48143000F099FD0C48E060143016
:1048100020610A4B0020F03B009003F15002102170
:104820000A2001F02CF8206010B105A100F05AFE1A
:10483000BDE8384000F0D4BD5800002064070020D7
:10484000546D72510000000030B4026C0B46002A17
:104850000BD0C1681144C1608468A14201D30168D2
:10486000C16030BC1846FCF7D7B830BC70472DE9A2
:10487000F041856B174604460026026C82B1C7B131
:10488000E068FCF7C9F8E168206C091AE160226869
:10489000914202D2A168081AE060022F16D017E0F8
:1048A0002068A8B9A06801F017FB06460020A060A8
:1048B0000EE06068FCF7B0F8216C60680844606046
:1048C000A168884204D32068606001E005B16D1ED4
:1048D0006D1CA5633046BDE8F08110B5044690F824
:1048E000590058B101280CD002280FD0502080F375
:1048F0001188BFF34F8FBFF36F8FFEE7206B00F07F
:1049000083FD2046BDE8104000F07EBD10BD0000D4
:1049100010484FF47051420706D0C01D0D4920F0D9
:104920000700411AC1F570510B4A00230144C2E946
:1049300000030839183A21F0070111604B600B6041
:104940000B1AC0E9001393604FF0004053605061B0
:1049500070470000440E002088000020144E154CC3
:10496000A6F29C474FF08058DFF84C9012E000BF51
:1049700000F016FDF068C568281D00F0B5FCA068C1
:10498000401EA0606068401E606000F029FD28465F
:10499000FFF7A3FF60680028EAD138680128F9D939
:1049A000C9F80080BFF34F8FBFF36F8FF2E70000AD
:1049B0004C0600201C00002004ED00E070B51D46F0
:1049C000049C51B1C4F80020C4E90F010121204624
:1049D00000F088FF84F84C5070BD2460F4E70000BC
:1049E0002DE9F05F8846DDE90B941546834691007A
:1049F0009A460A9EA522206BFCF753F86FF003013C
:104A0000206B01EB8501084420F00707780707D0E9
:104A1000502080F31188BFF34F8FBFF36F8FFEE7F5
:104A20000025B8F1000F0FD05FF00000221818F831
:104A3000001082F8341018F8001011B1401C102832
:104A4000F4D384F8435001E084F83450382E00D376
:104A50003726E662C4E91365201D00F07AFC04F1F4
:104A6000180000F076FC2461C6F138006462A06191
:104A7000656584F8585052465946384600F05AFA4F
:104A80002060B9F1000F01D0C9F80040BDE8F09FE7
:104A900030B5114900E011460A688242FBD34B68E9
:104AA0005C18844203D14068184448600846436853
:104AB0001C18944209D1084C183C2468A24209D021
:104AC00052681A4442600A6812680260814200D04B
:104AD000086030BD0460F9E78800002070B500244C
:104AE00041600B4D0061914206D8D11A8269914212
:104AF00006D2011D286907E09A4203D2994201D3E8
:104B0000012403E0011DE86800F026FC204670BD8A
:104B10005800002010B5044600F042FCA06B28B1FC
:104B20005FF0000400F05CFC204610BD0124F9E7B2
:104B300030B589B03C4D6EE00498002806DADDE916
:104B40000601059A90470498002864DB069C60697A
:104B500010B1201D00F0C8FB03A800F0D7F80246F2
:104B600004980A2857D2DFE800F00505052D334ADE
:104B700005052D3394F8280040F0010084F8280042
:104B80000599A069059B01442046FFF7A7FF68B37C
:104B9000216A2046884794F8280040073BD500202A
:104BA00000900598A169002342181946204601F09B
:104BB0009DFAD8B9502080F31188BFF34F8FBFF30F
:104BC0006F8FFEE714F8280F20F00100207022E01C
:104BD00094F8280040F0010084F828000598A061AE
:104BE00028B1811813462046FFF778FF13E05020C4
:104BF00080F31188BFF34F8FBFF36F8FFEE794F8F8
:104C00002800810703D4204600F0FEFB03E020F0DB
:104C1000010084F82800002204A9286800F0B6FFEB
:104C2000002889D109B030BD580000202DE9FC4191
:104C30000F46054600F038FD01A800F067F804466D
:104C4000019818B101F0C0F9BDE8FC81254EAFB163
:104C500030690068D0B30027291B3A46306800F05D
:104C600055FC01F0B1F90028EED11F494FF08050FA
:104C70000860BFF34F8FBFF36F8FE5E7A542EBD816
:104C800001F0A2F9F0682746C068C468201D00F052
:104C90002BFB94F82800410719D5A0692B46411930
:104CA0003A462046FFF71AFFA8B100200346014606
:104CB00000902A46204601F019FA60B9502080F38E
:104CC0001188BFF34F8FBFF36F8FFEE707E020F02F
:104CD000010084F82800216A20468847B4E70127AC
:104CE000BAE700005800002004ED00E00648416BE0
:104CF000096829B1416BC968C96849688162704710
:104D00004FF0FF31FAE700001C00002070B50546A7
:104D100001F078F8064E0446B068844203D200F0F1
:104D200009F8012000E0002028602046B46070BD32
:104D300058000020F8B5194D20E0C068C468066826
:104D4000201D00F0D1FA216A2046884794F82800F7
:104D5000400713D5A0693044B04206D92461606091
:104D6000211DE86800F0F8FA08E00020034601463B
:104D700000903246204601F0B9F938B1E868016880
:104D80000029DAD12969C5E90310F8BD502080F364
:104D90001188BFF34F8FBFF36F8FFEE758000020DD
:104DA00008484068401C4FF0500080F3118804D040
:104DB000BFF34F8FBFF36F8FFEE7BFF34F8FBFF38C
:104DC0006F8FFEE790000020074CE068016841B15A
:104DD000C0680021D0F80000FFF728FFFFF7A8FE09
:104DE000F3E701210020F7E7580000202DE9F0410A
:104DF000044600F0D5FA94F9455004F1240609E080
:104E0000606A48B1304601F0A7F808B100F0CEFB67
:104E10006D1E6DB2002DF3DC4FF0FF3684F8456057
:104E200000F0DEFA00F0BCFA94F9445004F11007E7
:104E300009E0206948B1384601F08EF808B100F069
:104E4000B5FB6D1E6DB2002DF3DC84F84460BDE847
:104E5000F04100F0C5BA00002DE9F04105460027F9
:104E600000F022FC324E306808B9FFF751FD70693E
:104E700005424ED1C5B3083568070ED005F00700CE
:104E8000C0F108000544680707D0502080F311885E
:104E9000BFF34F8FBFF36F8FFEE72DB3706885426E
:104EA00037D82348183001460C6801E020460C46EC
:104EB0006168A94202D221680029F7D131688C4289
:104EC00027D007682168016060680837411B1029F6
:104ED0000FD96019420708D0502080F31188BFF322
:104EE0004F8FBFF36F8FFEE713E041606560FFF700
:104EF000CFFD61687068401A7060B268904200D25D
:104F0000B060706901430020C4E90001F068401CF2
:104F1000F06001F059F8780707D0502080F311882D
:104F2000BFF34F8FBFF36F8FFEE73846BDE8F081C8
:104F30007000002010B5031F4FF080741C601B1F11
:104F400021F001011960191F044B0B6014390A602C
:104F5000091F6FF0020244380A6010BDA14D00081D
:104F60002DE9FF413FA12B20CDE90001444B45A293
:104F70004CA10320FEF794FE00200390FEF794FD61
:104F80004A4C002860605ED02178FFF779FA002251
:104F90000421012000F052FCA060002856D044A15A
:104FA0003C20CDE90001364B36A23EA10320FEF79E
:104FB00077FE012221464548FEF724F948B144A175
:104FC0004120CDE900012E4B2EA236A10320FEF791
:104FD00067FE464E4FF0FF3762253A4603A9A068A8
:104FE00000F0D4FD039842A10095CDE90110244BB7
:104FF00024A22CA10320FEF753FE0398B0421ED139
:1050000040480290404800231A4602A9006800F078
:10501000ADFC012809D03DA16A20CDE90001184B63
:1050200018A220A10120FEF73BFE40A16C20CDE993
:105030000001134B13A21BA10020FEF731FE01203B
:10504000FFF7BFFAC9E73EA1312001E04CA13920AA
:10505000CDE900010A4B0BA212A10120FEF720FEB0
:10506000BDE8FF815461736B5F756172745F647238
:10507000697665722069732072756E6E696E67005D
:10508000C56300082E2E5C4253505C555341525468
:105090005C6273705F756172745F64726976657269
:1050A0002E6300004E4F5F5441470000D80000209F
:1050B00071756575655F6972715F74687265616449
:1050C0002069732072756E6E696E6700E4000020BF
:1050D00048414C5F554152545F526563656976653E
:1050E0005F4954206661696C65640000A4A3A2A1B5
:1050F00020726563656976655F64617461203D2037
:1051000025780000B4B3B2B1D000002048414C5F14
:10511000554152545F527843706C7443616C6C62B9
:1051200061636B206661696C6564000073656E6421
:105130005F746F5F656E642073756363657373007E
:10514000637265617465456D7074794275666665F4
:105150007220697320675F63697263756C61725F47
:105160006275666665725F6972715F7468726561A7
:1051700064206D616C6C6F63206661696C656400AE
:105180007851756575654372656174652069732032
:1051900071756575655F6972715F74687265616468
:1051A000206D616C6C6F63206661696C65640000E2
:1051B0000EB520A11720CDE90001254B25A22EA177
:1051C0000320FEF76DFD2E4C0020024620600421D6
:1051D000012000F033FB2060002821D029A12020ED
:1051E000CDE900011A4B1BA223A10320FEF758FDB5
:1051F0004FF0FF36292522493246091D206800F06C
:10520000C5FC606827A10095CDE90110104B11A2E3
:1052100019A10320FEF744FD0120FFF7D2F9EAE7C8
:1052200029A11D20CDE90001094B0AA212A10120EC
:10523000DCE700005461736B5F756172745F7265C7
:10524000635F412069732072756E6E696E6700003E
:10525000B16300082E2E5C4150505C756172745F22
:1052600070617273655C756172745F706172736591
:105270005F7461736B2E63004E4F5F5441470000B3
:10528000D000002071756575655F6972715F726528
:10529000635F412063726561746520737563636544
:1052A0007373000071756575655F6972715F726512
:1052B000635F4120726563656976655F64617461EF
:1052C000203D20257800000071756575655F697265
:1052D000715F7265635F412063726561746520660A
:1052E00061696C6564000000D0E9013201699A606F
:1052F000D0E901235A604A68824201D182684A603B
:10530000002202610868401E0860086870470000BB
:10531000034B036003F15C0008608020106070475D
:105320008C070020044B036003F15C0008604FF41D
:105330008070106070470000E809002000F108014B
:105340004FF0FF32C0E90112C1600161002101602C
:10535000704700210161704730B50B685A1C02D0BC
:1053600000F1080202E0026904E022465468256860
:105370009D42FAD953684B6099608A605160086118
:105380000168491C016030BD42684A6093688B60C7
:1053900093685960916008610168491C0160704719
:1053A000502080F31188BFF34F8FBFF36F8F0A49EE
:1053B0004868401C486001280CD10848006810F07B
:1053C000FF0F07D0502080F31188BFF34F8FBFF33A
:1053D0006F8FFEE7704700009000002004ED00E0B2
:1053E0000849486828B1401E486001D180F31188FF
:1053F0007047502080F31188BFF34F8FBFF36F8F3A
:10540000FEE700009000002070B500282AD0164D5D
:10541000A0F1080460686969084207D1502080F350
:105420001188BFF34F8FBFF36F8FFEE722683AB149
:10543000502080F31188BFF34F8FBFF36F8FFEE7CB
:105440008843606000F030F960686968084468600B
:105450002046FFF71DFB2869401C2861BDE870400D
:1054600000F0B2BD70BD0000700000204FF0E020E1
:1054700000210161816105494FF47A720968B1FB2D
:10548000F2F1491E416107210161704718000020B7
:1054900010B5FAF787FF114910280ED300F1E0206C
:1054A00090F8F0030A78904207D2502080F31188D8
:1054B000BFF34F8FBFF36F8FFEE70948006889681D
:1054C00000F4E060884207D9502080F31188BFF3D0
:1054D0004F8FBFF36F8FFEE710BD000090000020DC
:1054E0000CED00E010B5084B002200BF53F832402D
:1054F0001CB1521C082AF9D310BD43F8321003EB3B
:10550000C201486010BD00007001002070B5154652
:105510000E460446FFF744FF94F944100020491C4E
:1055200001D184F8440094F94510491C01D184F854
:105530004500FFF755FFA06B28B92A46314604F114
:10554000240000F051F82046BDE87040FFF74EBC43
:1055500010B5020014D00F48006B38B1502080F312
:105560001188BFF34F8FBFF36F8FFEE700F09CF8F9
:1055700000211046FFF7A6F800F026FD002807D10D
:1055800005494FF080500860BFF34F8FBFF36F8F16
:1055900010BD00001C00002004ED00E002490A6A72
:1055A0000260C968416070471C0000200149012069
:1055B000C86170471C00002010B50C4650B1094965
:1055C00009681831FFF7C8FE2046BDE810400121E8
:1055D000FFF778B8502080F31188BFF34F8FBFF3E7
:1055E0006F8FFEE71C00002070B514460D4668B1B1
:1055F0000A4909681831FFF7C7FE0CB14FF0FF35B3
:1056000021462846BDE87040FFF75CB8502080F383
:105610001188BFF34F8FBFF36F8FFEE71C00002090
:1056200030B587B00024039405AA04A903A8049404
:10563000FFF76EFEDDE903010094CDE901100023C0
:1056400015A11748059A00F0A4FB164D0028E86242
:105650001FD000F01BFD012809D0401C19D150209B
:1056600080F31188BFF34F8FBFF36F8FFEE7502099
:1056700080F31188BFF34F8FBFF36F8F4FF0FF3070
:10568000A86201206861EC6007B0BDE8304000F01E
:1056900045B807B030BD000049444C45000000004B
:1056A0005D4900081C0000200248016B491C016391
:1056B000704700001C000020164810B5016B11B1A6
:1056C0000121C16110BD0021C1610169124A01E0DF
:1056D000B9B1491E01EB810352F82330002BF7D0FA
:1056E00001EB810302EB830202F1080453685B685B
:1056F0005360A34201D15B685360DA6802600161C4
:1057000010BD502080F31188BFF34F8FBFF36F8F10
:10571000FEE700001C000020B00100201CB5374847
:105720000168374A914207D1502080F31188BFF3B6
:105730004F8FBFF36F8FFEE700683149491E8842E3
:1057400007D1502080F31188BFF34F8FBFF36F8FC5
:10575000FEE72C4908780190FF20087008788DF842
:1057600000009DF800009DF8002000F0F00090423D
:1057700007D0502080F31188BFF34F8FBFF36F8F96
:10578000FEE79DF80000204C00F05000207007203C
:10579000A06005E09DF8002052008DF80020401E1A
:1057A0009DF800201206F5D4A060032807D05020F1
:1057B00080F31188BFF34F8FBFF36F8FFEE74FF475
:1057C0004070A060019808700C482030016841F4D6
:1057D00070010160016841F070410160FFF746FE11
:1057E00000206060FAF7A6FD0848016841F04041DA
:1057F0000160FAF78BFD00201CBD000000ED00E009
:1058000071C20F4100E400E09000002034EF00E09E
:1058100010B5502080F31188BFF34F8FBFF36F8F07
:1058200000F0F6FA18B104494FF0805008600020EB
:1058300080F3118810BD000004ED00E0F8B51746B4
:105840000E46050013D005FB06F05030FFF704FBB1
:1058500004000AD0002084F8460004F150023B46C0
:10586000314628460094FFF7A9F82046F8BD50209D
:1058700080F31188BFF34F8FBFF36F8FFEE738B50A
:10588000049D18B153B1CAB181B120E0502080F31A
:105890001188BFF34F8FBFF36F8FFEE7502080F367
:1058A0001188BFF34F8FBFF36F8FFEE7502080F357
:1058B0001188BFF34F8FBFF36F8FFEE739B15020D0
:1058C00080F31188BFF34F8FBFF36F8FFEE7502433
:1058D0001C46012384F846302B460094FFF76EF8EF
:1058E000204638BD70B50D46040025D0FFF758FDA1
:1058F000D4E90F20216802FB0011A1600021A163FF
:10590000216861600A46D4E90F01401E00FB0121B5
:10591000E16021464FF0FF3001F8440F487004F178
:1059200010008DB1FFF70AFD04F12400FFF706FD1A
:10593000FFF756FD012070BD502080F31188BFF3A2
:105940004F8FBFF36F8FFEE721690029F0D000F081
:1059500003FB0028ECD004494FF080500860BFF3EF
:105960004F8FBFF36F8FE3E704ED00E02DE9FF47B2
:1059700082B01D468A464FF00008040003D0BAF1F9
:10598000000F08D011E0502080F31188BFF34F8F33
:10599000BFF36F8FFEE7206C38B1502080F3118881
:1059A000BFF34F8FBFF36F8FFEE7022D0AD1E06B7D
:1059B000012807D0502080F31188BFF34F8FBFF329
:1059C0006F8FFEE700F010FA3F4F4FF000094FF0E5
:1059D000805648B9049838B1502080F31188BFF33D
:1059E0004F8FBFF36F8FFEE7FFF7DAFCA06BE16B21
:1059F000884207D3022D05D00498D0B1B8F1000F2A
:105A00001AD01EE02A4651462046FEF730FF616A52
:105A100019B104F1240000F09FFA20B13E60BFF3F9
:105A20004F8FBFF36F8FFFF7DBFC012006B0BDE89F
:105A3000F087FFF7D5FC22E06846FFF7AFFD4FF097
:105A40000108FFF7CDFCFFF72FFEFFF7A9FC94F943
:105A50004400401C01D184F8449094F94500401C56
:105A600001D184F84590FFF7BBFC04A9684600F01B
:105A700029F930B12046FFF7B9F900F0A5FA002066
:105A8000D4E7FFF78DFCA06BE16B884213D1FFF7E1
:105A9000A7FC04F110000499FFF78EFD2046FFF7E4
:105AA000A5F900F091FA00289ED13E60BFF34F8F18
:105AB000BFF36F8F98E7FFF793FC2046FFF796F947
:105AC00000F082FA90E7000004ED00E02DE9F047D5
:105AD0001F4690468946040003D0B9F1000F08D054
